:020000040800F2
:100000008810002071020008EB2500081524000864
:10001000E925000881060008ED2F00080000000017
:10002000000000000000000000000000A1280008FF
:100030000908000800000000ED250008A5290008B7
:100040008B0200088B0200088B0200088B0200085C
:100050008B0200088B0200088B0200088B0200084C
:100060008B0200088B0200088B0200088B0200083C
:100070008B020008350700088B02000841070008C2
:100080004D070008590700088B0200088B02000882
:100090008B02000885060008910600088B02000804
:1000A0008B0200088B0200088B0200088B020008FC
:1000B0008B0200088B0200088B0200088B020008EC
:1000C0008B0200088B0200088B0200088B020008DC
:1000D0008B0200088B020008092F00088B02000821
:1000E0008B0200088B0200088B0200088B020008BC
:1000F0008B0200088B0200088B0200088B020008AC
:100100008B0200088B0200088B0200088B0200089B
:100110004D2A00088B0200088B0200088B020008A1
:100120008B0200088B0200088B0200088B0200087B
:100130008B02000800000000000000008B02000895
:100140009D0600088B020008A90600088B02000823
:100150008B0200088B0200088B0200088B0200084B
:100160008B0200088B0200088B0200088B0200083B
:100170008B0200088B020008000000000000000055
:100180008B0200088B02000800F002F800F061F812
:100190000AA090E8000C82448344AAF10107DA45E2
:1001A00001D100F056F8AFF2090EBAE80F0013F0D3
:1001B000010F18BFFB1A43F00103184794450000D4
:1001C000B44500000A444FF0000C10F8013B13F056
:1001D000070408BF10F8014B1D1108BF10F8015BA0
:1001E000641E05D010F8016B641E01F8016BF9D193
:1001F00013F0080F1EBF10F8014BAD1C0C1B09D1EA
:100200006D1E58BF01F801CBFAD505E014F8016B5B
:1002100001F8016B6D1EF9D59142D6D370470000ED
:100220000023002400250026103A28BF78C1FBD8FF
:10023000520728BF30C148BF0B607047642900F0E7
:10024000EF80002070471FB504F0D7F91FBD10B52F
:1002500010BD00F0E7F91146FFF7F5FF03F002FCCF
:1002600000F005FA03B4FFF7F2FF03BC03F0C4FB90
:100270000948804709480047FEE7FEE7FEE7FEE73A
:10028000FEE7FEE7FEE7FEE7FEE7FEE70448054976
:10029000054A064B704700003D2A00088901000806
:1002A000880A002088100020880C0020880C00207C
:1002B000704753EA020C00F069802DE9F04B4FF0D3
:1002C0000006002B1FBFB3FA83F503FA05F424FAE6
:1002D00005F65E4012BF1643B2FA82F502FA05F443
:1002E000C5F120051EBF22FA05FC44EA0C042035A6
:1002F00056EA044C4FEA144418BF641C4FF000083F
:100300004FF00009904271EB030C39D3002919BF5B
:10031000B1FA81F701FA07F6B0FA80F700FA07F6AA
:10032000C7F120071EBF20FA07FC46EA0C0620375B
:10033000B6FBF4FCA7EB0507103F07F01F0BCBF152
:1003400020060CFA0BFB2CFA06F644BFB346002637
:10035000202FA4BF5E464FF0000B5BEA060C08BFDF
:100360004FF0010B19EB0B09ABFB027C48EB0608C5
:10037000C01B06FB02CC0BFB03CC71EB0C01C1E7ED
:100380000B46024641464846BDE8F08B13B54FF098
:1003900000004FF00001AFF30080BDE81C40704743
:1003A0000FB4044910B503AA029800F005F910BC77
:1003B0005DF814FB180500202DE9F0410E460446B7
:1003C000002020622046E168884730B3252805D008
:1003D000D4E901219047206A401CF2E7E1682046F9
:1003E00000278847050018D0A5F14100192802D838
:1003F00020354FF400673246294620462760FFF734
:100400001DFF40B1012804D0F61D26F0070608366E
:10041000D8E7361DD6E72846DAE7206ABDE8F0813E
:100420002DE9F0410646002410687529314616A5CD
:1004300010D0AFF30080002802DA404213A507E095
:1004400031688A0701D512A502E0490704D511A534
:10045000012401E0AFF3008000210A2206F1240705
:1004600009E0B0FBF2FCB0FBF2F302FB1C00303001
:1004700078541846491C0028F3D123462A463046B2
:10048000BDE8F04100F03EB8000000002D00000083
:100490002B000000200000004FF0000200B51346C2
:1004A00094469646203922BFA0E80C50A0E80C5094
:1004B000B1F12001BFF4F7AF090728BFA0E80C5045
:1004C00048BF0CC05DF804EB890028BF40F8042B3E
:1004D00008BF704748BF20F8022B11F0804F18BFAB
:1004E00000F8012B7047704770477047704710B590
:1004F00000F074F8006810BD10B5044600F06EF806
:10050000046010BD2DE9F0470D4699469246044619
:1005100000F124080168880604D5E06921F0100183
:10052000216000E00120A84201DD471B00E0002718
:10053000A1697A1902EB0900081AA0612078C006A7
:1005400002D42046AFF30080002608E0D4E9012160
:100550001AF806009047206A401C761C20624E451F
:10056000F4DB2078C0060AD52046AFF3008006E011
:10057000D4E9012130209047206A401C2062381EB7
:10058000A7F10107F4DC07E0D4E9012118F8050020
:100590009047206A401C2062281EA5F10105F3DC6B
:1005A0002046AFF300802078000602D50220BDE887
:1005B000F0870120FBE70000074B70B50D467B4438
:1005C00000F015F80446284600F024F810B14FF06A
:1005D000FF3070BD204670BD5334000000487047A6
:1005E000240A002001694A1C02610878704700B59E
:1005F0008FB0CDE901310021059105497944CDE95C
:10060000031011466846FFF7D7FE0FB000BD00008B
:10061000E5FFFFFF007B00F0800070470048704757
:10062000240A00207546FFF7F9FFAE46050069462B
:10063000534620F00700854618B020B5FFF726FE88
:10064000BDE820404FF000064FF000074FF00008D3
:100650004FF0000B21F00701AC46ACE8C009ACE854
:10066000C009ACE8C009ACE8C0098D46704710B5B8
:100670000446AFF300802046BDE81040FFF7F2BD0E
:10068000FEE70000014800F07CBA0000CC07002023
:10069000014800F076BA0000CC070020014800F0C5
:1006A00070BA0000F4070020014800F06ABA0000A8
:1006B000F407002030B51D49036800220D680121B0
:1006C0008BB00446AB4211D1CDE9062105920092D0
:1006D00001920292CDE9032108910991694600F047
:1006E0003FF9204600F0AAFC102116E0104D2D68BD
:1006F000AB4215D10F200791CDE905020392049278
:10070000CDE908100092019202926946204600F05D
:1007100027F9204600F092FC0221204600F0A0F8C4
:10072000002801D000F071F80BB030BDCC070020DC
:10073000F4070020014800F00FBD0000A4080020CD
:10074000014800F009BD000004090020014800F044
:1007500003BD000064090020014800F0FDBC00005A
:10076000C409002001681823CAB2103AB2FBF3F2A0
:10077000054B6FF30901032A9B5CC36500D9091D72
:1007800081650846704700000E46000810B5014616
:1007900000208B698A6A4FF0C07453B1B3F5005FD3
:1007A00015D072B1012A0CD0022A0AD0032A09D12D
:1007B00004E01AB1012A06D0022A03D1C96AC9018C
:1007C00000D5012010BDC96AA142FAD010BD002A8F
:1007D000F7D0012AF2D0022AF3D0032AF3D010BDB9
:1007E00030B50468256825F48025256004686360B9
:1007F0008368402B036803D099600068C26030BDF5
:100800009A600068C16030BD704772B6FEE70000B4
:1008100010B52DED048BB0EE408AF0EE608A9FEDAE
:100820000E9B51EC180B53EC192B03F049FD0CD324
:1008300053EC192B51EC180B03F008FC05D851ECC4
:10084000180B03F05FF941EC180BB0EE480AF0EE1C
:10085000680ABDEC048B10BD000000000000000021
:1008600090F82020012A07D0022A05D0416A41F4DD
:100870008021416201207047006842690A43426159
:1008800000207047F0B590F820500468A468012D4E
:1008900005D0022D03D0416A41F480215DE014F0BF
:1008A000406F01D1E50055D5C4F30164022C03D992
:1008B000416A41F4000150E00125A5401D608D68AA
:1008C0004FF4C0739DB1CE6835434E6845EAC60506
:1008D000066803EB0417F5514FF4C275076805EB82
:1008E00004150E697E51097D012905D009E00E88A5
:1008F000CD6845EA4655EBE701684E5946F48076E7
:100900004E511179D579567941EA056195792D04D1
:1009100045EA062529434FF4C676056806EB04161A
:10092000A9511178D57841EA0561957852782D045E
:1009300045EA022211434FF4C475026805EB041521
:100940005151006803EB0411425842F00102425039
:100950000020F0BD416A41F4001141620120F0BD68
:1009600010B590F82020012A07D0022A05D0416A4C
:1009700041F480214162012010BD3B48D0F80022A3
:1009800042F00102C0F80022D0F8002222F47C528A
:10099000C0F80022D0F800224B6A42EA0322C0F8D5
:1009A00000220A7D02F01F0301229A40D0F81C3277
:1009B0009343C0F81C32CB69B3B9D0F80C329343DF
:1009C000C0F80C328C894B6864F31F434C6900EB10
:1009D000C404C4F840320C890B6864F31F434C69AB
:1009E00000EBC404C4F84432CB69012B16D1D0F813
:1009F0000C321343C0F80C320C884B6864F31F436D
:100A00004C6900EBC404C4F840320C89CB6864F331
:100A10001F434C6900EBC404C4F844328B69002BBB
:100A2000D0F804320ED01343C0F804320B69002B07
:100A3000D0F8143208D01343C0F81432096A0129DF
:100A400004D008E09343EFE79343F5E7D0F81C1296
:100A50001143C0F81C12D0F8001221F00101C0F8B7
:100A60000012002010BD000000640040704730B547
:100A700090F82040012C05D0022C03D0416A41F4AB
:100A800080215DE00468002955D02469A40754D072
:100A90004FF4D874056804EB01142D5915F00405C2
:100AA000956005682D594ED0ED08556005682C59A4
:100AB00004F00204D4604FF4DA74056804EB011406
:100AC0002D5905F00F05156105682D59C5F307254A
:100AD000956105682C59240C54614FF4DC7204684C
:100AE00002EB0112A4581C700468A458240A5C701C
:100AF0000468A458240C9C700468A258120EDA7082
:100B00004FF4DE72046802EB0112A4581C710468F1
:100B1000A458240A5C710468A458240C9C710468CD
:100B2000A258120EDA71006881B1016941F020010A
:100B30000161002030BDE468A8E7416A41F400117A
:100B40004162012030BD6D0D1560AFE7C16841F015
:100B50002001C160EDE70246002092F82010012933
:100B600001D002290CD111688A68520100D50120F8
:100B70008A68120100D5401C8968C90000D5401C54
:100B800070472DE9F05F0546006800244669D0F8FB
:100B900004908768D0F80CB0D0F810A0D0F8188076
:100BA000F10748D0F90714D001218160B80703D5B7
:100BB000284600F070FA0CE0780702D54FF4006484
:100BC00007E0380702D54FF4805402E0284600F0D1
:100BD00061FAF80516D529684FF480708860B80569
:100BE00003D5284600F059FA0CE0780502D544F404
:100BF000005407E0380502D544F4804402E028465A
:100C000000F04AFAF80316D529684FF4803088605E
:100C1000B80303D5284600F042FA0CE0780302D569
:100C200044F4004407E0380302D544F4803402E081
:100C3000284600F033FA300707D55FEACB6004D5C9
:100C40002968102044F40074C86070074FF008074A
:100C500007D55FEA0B7004D52868C760284600F006
:100C6000ABF9B00706D52868C068800702D02846CF
:100C700000F0A4F9700607D55FEACA6004D52968B8
:100C8000102044F480640861B00607D55FEA0A705A
:100C900004D528680761284600F0AEF9F00606D5AD
:100CA00028680069800702D0284600F0A7F9B00341
:100CB00008D55FEAC96005D5296810204860284634
:100CC00000F0BAF9F00307D55FEA097004D5286887
:100CD0004760284600F0E4F9300446D55FEA4970E1
:100CE00040D5F00504D55FEAC87001D044F0010496
:100CF000B00504D55FEA887001D544F002047005A0
:100D000004D55FEA487001D544F00404300529D5C4
:100D100018F0700F26D008F07000402815D006DCBF
:100D2000102809D020280AD0302816D10AE05028EF
:100D30000ED0602811D10EE044F008040DE044F01C
:100D400010040AE044F0200407E044F0400404E00A
:100D500044F0800401E044F480742868816921F043
:100D600070018161296804204860002C05D0686A00
:100D7000204368622846FFF779FEBDE8F09F70B512
:100D8000040003D094F8200010B104E0012070BDED
:100D9000204600F081F82068016841F001010160FF
:100DA00000F064FC0546052604E000F05FFC401BF3
:100DB0000A2811D820684068C007F6D0206801686A
:100DC00021F00201016000F051FC05460BE000F04B
:100DD0004DFC401B0A2806D9606A40F4003060626E
:100DE00084F82060D2E7206840688007EFD4207E36
:100DF0000128206801683DD021F080010160607EFB
:100E000001282068016838D021F040010160A07EEF
:100E100001282068016833D021F020010160E07EC4
:100E20000128206801682ED041F010010160207F68
:100E300001282068016829D021F008010160607F45
:100E400001282068016824D021F004010160D4E960
:100E500002010843D4E90412114308436168491EA2
:100E600008432168C86100206062012084F82000E6
:100E7000002070BD41F08001C0E741F04001C5E7AE
:100E800041F02001CAE721F01001CFE741F008014D
:100E9000D4E741F00401D9E7F0B587B00446142146
:100EA0006846FFF7F9FA3F4B3F48DFF8F4E019686E
:100EB000D4F800C03C4A022503260927103000243C
:100EC000491CF4452CD11960012907D1016841F072
:100ED00000710160006800F000700590106840F03B
:100EE00001001060106802AB00F0010005904FF4A3
:100EF000C050CDE9000583E8D00069462B4800F0DA
:100F0000AFFA00221146152000F01EFC152000F05B
:100F10000DFC00221146162000F016FC16203BE0C6
:100F2000DFF88CE0F44539D1D0F800C04CF0806C8B
:100F3000C0F800C0D0F800C001290CF0806CCDF8DA
:100F400014C0196007D1016841F0007101600068A8
:100F500000F000700590106840F00200106010680A
:100F600002AB00F0020005904FF44050CDE90005BF
:100F700083E8D00069460F4800F072FA002211465B
:100F8000402000F0E1FB402000F0D0FB00221146A1
:100F9000422000F0D9FB422000F0C8FB07B0F0BDB2
:100FA0000064004014050020303802400000024078
:100FB00000680040000402407047000000B50D4A80
:100FC000016889B01268914211D1002100916B46ED
:100FD00002AA0191FFF74BFD0498002807D102985F
:100FE000A0F20121072902D8694601F01DFB09B0D2
:100FF00000BD0000F40700207047000000B50D4A56
:10100000016889B01268914212D1002100910191CA
:101010006B4602AA0121FFF72AFD0498002807D198
:101020000298A0F54071513902D1684602F0FEFCE9
:1010300009B000BDCC0700207047000070B5044621
:1010400090F82000012804D0606A40F4002060621B
:1010500018E0022084F820002068016821F00101D6
:10106000016000F003FB05460EE000BF00F0FEFA51
:10107000401B0A2808D9606A40F4003060620520ED
:1010800084F82000012070BD20684068C007EDD1C1
:10109000606270BD70477047704770477047704717
:1010A00070472DE9F0410446876D00F0DFFA0646EF
:1010B00094F835000025022806D08020606584F869
:1010C00034500120BDE8F0812068016821F016014C
:1010D00001602068416921F080014161206C08B9FC
:1010E000A06C20B12068016821F00801016020682F
:1010F000016821F0010101600CE000F0B7FA801BEB
:10110000052807D920206065032084F8350084F87D
:101110003450D7E720680068C007EED194F85C101F
:101120003F208840B860012084F8350084F83450AE
:101130000020C7E790F83510022903D080214165CF
:1011400001207047052180F835100068016821F002
:1011500001010160002070472DE9F84304464FF07B
:101160000009CDF8009063484FF41651A56D006852
:10117000B0FBF1F72E6894F85C10082000FA01F13A
:1011800031420FD021680A6852070BD50A6822F055
:1011900004020A6094F85C108840A860606D40F01A
:1011A0000100606594F85C104FF0010808FA01F046
:1011B000304208D021684969090604D5A860606DED
:1011C00040F00200606594F85C10042088403042D2
:1011D00008D021680968890704D5A860606D40F0CF
:1011E0000400606594F85C1010208840304218D0EC
:1011F00021680968090714D5A860206801684903B7
:1012000004D50068000308D5A16C07E00168C90592
:1012100003D4016821F008010160216C09B1204666
:10122000884794F85C1020208840304231D02168F3
:101230000968C9062DD5A86094F8350005282068EE
:10124000016806D0490347D5006800031DD4616CCE
:101250001CE021F0160101602068416921F0800145
:101260004161206C08B9A06C20B12068016821F0B0
:101270000801016094F85C103F208840A86084F861
:10128000358084F83490216D1FE0E16B09B1204670
:101290008847606D00282BD0606DC00714D00520F2
:1012A00084F835002068016821F001010160009890
:1012B000401C0090B84203D820680068C007F6D1EF
:1012C00084F8358084F83490E16C002910D001B0A6
:1012D0002046BDE8F04308470168C905D5D4016838
:1012E00021F01001016084F8358084F83490CCE757
:1012F000BDE8F883280500202DE9F041044600F000
:10130000B5F906465CB1022084F83500002584F862
:1013100034502068016821F0010101600DE00120D6
:10132000BDE8F08100F0A2F9801B052805D9202036
:101330006065032084F83500F2E720680068C00784
:10134000F0D12268116820480140D4E90103184314
:10135000D4E903363343184363691843A369184338
:10136000E3691843236A18430843616A042903D1D7
:10137000D4E90B1319430843106020684069666A7A
:1013800020F0070130460E43012704280CD1A06A43
:101390000643E06A40B12046FFF7F8F920B140204B
:1013A000606584F83570BAE7206846612046FFF72B
:1013B000D9F994F85C203F2191408160656584F8FB
:1013C00035700020ACE700003F8010F02DE9F041BF
:1013D0000446866D90F83400002501280DD00120C8
:1013E00084F8340094F835700020012F07D084F879
:1013F000340002252846BDE8F0810220FBE70227E1
:1014000084F8357060652046FFF7EAF994F85C10BF
:101410003F208840B0602068016841F016010160FB
:10142000206C20B12068016841F00801016020684B
:10143000016841F001010160DCE7000070B504467D
:1014400000F014F90546601C02D0044800780444FA
:1014500000F00CF9401BA042FAD370BD1C0500201F
:101460002DE9F84FDFF8BCA10022012503264FF03B
:101470000F090AF1040BAAF1040E00BF0B6805FA6C
:1014800002F42340A34270D10F7907F00307012F24
:1014900001D0022F16D187684FEA420806FA08FCED
:1014A00027EA0C07D1F80CC00CFA08FC4CEA070C30
:1014B000C0F808C04768A7430C79C4F300149440EF
:1014C0003C4344600C79E443A4070AD0C4684FEA63
:1014D000420C06FA0CF7BC438F6807FA0CF7274357
:1014E000C7600C7904F00304022C12D1D40800EB7D
:1014F000840CDCF820405707FF0E09FA07F824EAAD
:101500000804D1F8108008FA07F848EA0408CCF873
:10151000208004684FEA420C06FA0CF7BC430F79AE
:1015200007F0030707FA0CF7274307604C6814F429
:10153000403F70D03C4C276847F4804727602468C0
:1015400022F0030704F480440094384C07EB040CA9
:10155000DCF8084897074FEA177809FA08F7BC4300
:10156000334FB84202D1002724E054E0314FB84253
:1015700001D101271EE0304FB84201D1022719E006
:101580002E4FB84201D1032714E02D4FB84201D1AC
:1015900004270FE02B4FB84201D105270AE02A4F5C
:1015A000B84201D1062705E0284FB84201D10727EC
:1015B00000E0082707FA08F72743CCF80878DAF89C
:1015C00000405746D1F804C09C435FEACC2C00D5BC
:1015D0001C433C60DBF800405F46D1F804C09C43EC
:1015E0005FEA8C2C00D51C433C60DEF80040774657
:1015F000D1F804C09C435FEA8C3C00D51C433C609E
:10160000084F083F3C68D1F804C09C435FEACC3CDB
:1016100000D51C433C60521C102AFFF42FAFBDE8DC
:10162000F88F0000083C014044380240003001407F
:10163000000002400004024000080240000C02408A
:10164000001002400014024000180240001C02403A
:10165000426921EA02030A4043EA0241816170477C
:101660000AB1816170470904FBE700000148806806
:10167000704700001C050020024881680278114470
:10168000816070471C0500200B4810B5016841F4CB
:1016900000710160016841F480610160016841F4FA
:1016A00080710160032000F06FF80F2000F006F851
:1016B00000F024F8002010BD003C024070B50D4D34
:1016C00004464FF47A712878B1FBF0F00A490968B2
:1016D000B1FBF0F000F00CFB48B9102C07D200224F
:1016E0002146501E00F030F800206C6070BD0120D3
:1016F00070BD00001C050020280500200A4808B520
:10170000016841F480410160006800F4804000906D
:101710000548001F016841F080510160006800F039
:101720008050009008BD000044380240002809DBCA
:1017300000F01F02012191404009800000F1E020EB
:10174000C0F8001170470000F0B40E4B1B680C4647
:10175000C3F30223C3F10705042D00D90425191D85
:10176000072901D2002300E0DB1E012606FA05F15D
:10177000491E214099409E40761E16403143F0BCE0
:1017800001F04DBC0CED00E0064900F007020868CE
:101790004FF6FF03184040EA0220034A1043086056
:1017A000704700000CED00E00000FA052DE9F0475D
:1017B0000E46050065D0DFF81481D8F80000F7B2B6
:1017C00000F00700B04207D288F80070D8F8000097
:1017D00000F00700B04254D128683D4C810712D573
:1017E000400703D5206840F4E050206028780007C7
:1017F00003D5206840F4604020602068A96820F08C
:10180000F000084320602878C0072DD03049686870
:101810000839012812D0022813D0032811D00968F2
:10182000890700292DDA216821F003010143216095
:10183000FFF71CFF814641F2883A0EE009688903F0
:10184000EFE709688901ECE7FFF710FFA0EB09015A
:10185000514502D90320BDE8F0872068696800F08F
:101860000C00B0EB810FEFD1D8F80010404601F02A
:101870000701B14207D90770006800F00700B042C5
:1018800001D00120E7E72878400705D52068E968FE
:1018900020F4E050084320602878000706D520682F
:1018A000296920F4604040EAC100206000F038F867
:1018B0002168084AC1F30311515CC8400649086019
:1018C00006480068FFF7FAFE0020C4E7003C02402B
:1018D0000838024016460008280500202005002090
:1018E0000448054900680968044AC1F38221515C33
:1018F000C8407047280500200838024026460008E6
:101900000448054900680968044AC1F34231515C42
:10191000C8407047280500200838024026460008C5
:10192000154810B5006810F00C02144813D0144983
:10193000042A0FD0082A0ED10F4C241F22682368D6
:1019400002F03F025B0207D52068C0F38810A0FBBD
:10195000010106E0084610BD2168C1F38811A1FB12
:1019600000010023FEF7A5FC2168C1F30141491CD9
:101970004900B0FBF1F010BD083802400024F4002B
:1019800040787D012DE9F84F04006ED02078DFF813
:101990004C93C007A9F104054AD009F1040001687D
:1019A000C1F38101012908D00068C0F38100022839
:1019B0000AD1D9F80000400206D52868800337D53F
:1019C00060680028E1D033E06068B0F5803F10D057
:1019D000B0F5A02F286810D020F480302860286847
:1019E00020F4802028606068A8B1FFF73FFE06461B
:1019F0000DE0286840F48030F4E740F4802028604F
:101A0000F7E700BFFFF732FE801B642873D8286811
:101A10008003F7D50CE0FFF729FE064605E000BF7E
:101A2000FFF724FE801B6428F0D828688003F7D4D1
:101A30002078DFF8AC8280074FF0000A3ED5A74837
:101A4000001D016811F00C0F08D00068C0F3810080
:101A500002280BD1D9F80000400207D4286880077B
:101A600016D5E068012800D112E033E1E068B8B192
:101A70000120C8F80000FFF7F9FD064605E000BFA9
:101A8000FFF7F4FD801B0228C0D828688007F7D52F
:101A90002868216920F0F80040EAC10028600DE0C4
:101AA000C8F800A0FFF7E2FD064604E0FFF7DEFD00
:101AB000801B02281FD828688007F7D420780007E9
:101AC00022D5864F87486169703771B10121016065
:101AD000FFF7CCFD064604E0FFF7C8FD801B022897
:101AE00009D838688007F7D50EE0C0F800A0FFF7E6
:101AF000BDFD064605E082E0FFF7B8FD801B022829
:101B00007DD838688007F7D42078400768D5DFF89B
:101B1000CCB100270BF13C0BDBF80000C0000BD46C
:101B2000DBF8001041F08051CBF80010DBF800002A
:101B3000012700F0805000906B4E3068C00510D433
:101B4000306840F480703060FFF790FD009005E051
:101B5000FFF78CFD0099401A022850D83068C00564
:101B6000F6D55E4EA0686C3601280FD00528306887
:101B700010D020F001003060306820F004003060A8
:101B8000A068B8B1FFF772FD00900FE0306840F038
:101B90000100F4E740F004003060F7E7FFF766FD6E
:101BA0000099411A41F28830814266D83068800736
:101BB000F4D50EE0FFF75AFD009007E0FFF756FD61
:101BC0000099411A41F28830814256D83068800726
:101BD000F4D42FB1DBF8001021F08051CBF80010C5
:101BE000A069C8B33D49091D0968C1F381010229F3
:101BF0004AD00228504607D0C8F8600000E03CE018
:101C0000FFF734FD04463BE04746C8F86000FFF7A5
:101C10002DFD064605E000BFFFF728FD801B0228CA
:101C20002BD828688001F7D4D4E907010843A16ABA
:101C30002E4A490802EB0141626A41EA82110843D7
:101C400094F82C1040EA0161C9F8001001203866B0
:101C5000FFF70CFD044606E03EE000BFFFF706FD7F
:101C6000001B022809D828688001F7D534E000BF9E
:101C7000FFF7FCFC001B022802D90320BDE8F88F07
:101C800028688001F4D427E00128F7D0D9F80000B3
:101C9000E26900F4800191421CD1226A00F03F0108
:101CA000914217D147F6C071626A0140B1EB821FC1
:101CB00010D1A26A4FF0FF3300F4403103EB52021F
:101CC000B1EB024F06D194F82C1000F07060B0EB2D
:101CD000016F01D00120D1E70020CFE70438024096
:101CE00000004742800E4742007000400000FFFFA6
:101CF00010B5401EB0F1807F01D3012010BD4FF020
:101D0000E02460610F21601701F089F90020A061D3
:101D100007202061002010BD704710B50446006800
:101D2000406994F83D10C0F3C010212911D180B151
:101D30002068143050E8001F21F0800140E80012B4
:101D4000002AF5D1606B08B1FFF7ABF9204600F02F
:101D500061FF2068406994F83E10C0F3801022298A
:101D600011D180B12068143050E8001F21F04001EB
:101D700040E80012002AF5D1A06B08B1FFF791F9F5
:101D8000204600F020FF002010BD7047F8B5016824
:101D900004460868CA684B6910F00F0F4FF0000541
:101DA00059D003F0010602F49077374365D0C1079C
:101DB00005D0D10503D5216C41F001012164410713
:101DC00005D5D90703D0216C41F0020121648107B8
:101DD00005D5D90703D0216C41F004012164010726
:101DE00007D502F02001314303D0216C41F00801F6
:101DF0002164216C00293AD0800604D5900602D5D2
:101E0000204600F015FF20684069216CC0F3801067
:101E1000090700D460B3204600F0D5FE2068406971
:101E2000400621D52068143050E8001F21F0400101
:101E300040E80012002AF5D1A06BA8B16C490165F9
:101E4000A06BFFF777F9002811D0A06B016D01B0EE
:101E5000BDE8F040084783060FD593060DD5204610
:101E6000BDE8F84000F0E4BE2046FFF78EFFF8BD65
:101E70002046FFF78AFF2564F8BD266B2023012E3C
:101E800079D1C60677D5D60675D50868486800901A
:101E90004869400640D5A16B086840680004000C02
:101EA000EAD0A28D8242E7D9E085C869B0F5807F8B
:101EB0002DD020680C3050E8001F21F4807140E8DC
:101EC0000012002AF5D12068143050E8001F21F0DC
:101ED000010140E80012002AF5D12068143050E8D2
:101EE000001F21F0400140E80012002AF5D184F8DB
:101EF0003E30256320680C3050E8001F21F01001AF
:101F000040E80012002AF5D1A06BFFF7CAF8A08DB7
:101F1000E18D401A81B229E0A08DE18D401A81B295
:101F2000E08D0028A8D00029A6D020680C3050E809
:101F3000002F22F4907240E80026002EF5D1206890
:101F4000143050E8002F22F0010240E80026002E55
:101F5000F5D184F83E30256320680C3050E8002F1E
:101F600022F0100240E80023002BF5D12046FFF7B5
:101F7000D3FEF8BDFFE705062BD5150629D594F845
:101F80003D002128F5D1A068B0F5805F01D120691E
:101F9000B0B1206A411C2162216800784860E08C61
:101FA000401E0004000CE084E3D12068C16821F0E9
:101FB0008001C1602068C16841F04001C160D8E77C
:101FC000206A0088C0F308004860206A801C2062F4
:101FD000E5E74006CDD55006CBD5CA68204622F0AD
:101FE0004002CA6084F83D3000F08BF9C1E7000080
:101FF000D12A000870B5040004D094F83D000025F3
:1020000010B106E0012070BD84F83C50204600F07D
:1020100023F8242084F83D002068C16821F4005191
:10202000C160204600F064FE2068016921F49041FF
:1020300001612068416921F02A0141612068C1687D
:1020400041F40051C1602564202084F83D0084F8EB
:102050003E00002070BD00002DE9F04F87B004461F
:1020600014216846FEF718FA5C485C49DFF868817D
:10207000D4F800C0103903220223594E0025470529
:102080004FF4807A4FF0400B4FF48069C4454CD137
:10209000D0F800C04CF4002CC0F800C0006800F478
:1020A00000200590086840F0010008600868694653
:1020B00000F0010005908DE82C000820CDE90320F8
:1020C0003046FFF7CDF9484E4648B8463060C6E97D
:1020D0000175C6E903597561C6E9065A35624F466E
:1020E00030467562FFF708F908B1FEF78EFBA6636C
:1020F000B4633D4E3B4860363030C6E903577561E6
:10210000B561F5613562756286E801093046FFF711
:10211000F3F808B1FEF779FB666300220121342051
:10212000B463FFF711FB342051E0DFF8C080C445F1
:102130004FD1D0F800C04CF4003CC0F800C000689B
:1021400000F400300590086840F00100086008685D
:10215000694600F0010005900C208DE82900072059
:10216000CDE903203046FFF77BF91F4E1D48C036EE
:1021700048303060C6E90175C6E903597561C6E9A2
:10218000065AB84635624F4630467562FFF7B4F8D6
:1021900008B1FEF73AFBA663B463154E1148C6E9D1
:1021A00003577561B561F56135626030756286E827
:1021B00001093046FFF7A0F808B1FEF726FB666379
:1021C000002201212620B463FFF7BEFA2620FFF784
:1021D000ADFA07B0BDE8F08F004C00404038024037
:1021E0000000024040600240A4080020004400407B
:1021F000C40900202DE9F84F044690F83E009A46A5
:1022000016460D46202853D1FDB1F6B194F83C0096
:1022100001284DD0012084F83C00002727642220AB
:1022200084F83E002763FFF721FAA6858146E685FC
:10223000A0684FF48058404501D1206940B12E4636
:102240005FF0000584F83C7027E00120BDE8F88FBE
:102250000026F7E74B46002220212046CDF800A0BB
:1022600000F016FE08B10320F0E726B1A068404553
:102270001BD038B108E020684068C0F3080025F89A
:10228000020B07E0206980B12068406800F07F0001
:1022900006F8010BE08D401EE085E08D0028D9D1C5
:1022A000202084F83E000020D0E720684068EFE757
:1022B0000220CBE790F83E30202B0ED159B152B11D
:1022C00090F83C30012B08D0012380F83C300023EB
:1022D000036300F093BD01207047022070470000A7
:1022E000054A01681268914205D142F21073082232
:1022F0000249FFF77FBF70471C080020080000203C
:10230000704770472DE9F047074601783220DFF823
:10231000DC80DFF8DC90374D374E0024572905D19B
:10232000C8F80040C9F800002C6034603A786FF0BB
:102330003101532A05D1C8F80040C9F800102C60BB
:1023400034603A78412A05D1C8F80000C9F8004045
:102350002C6034603878442805D1C8F80010C9F8DA
:1023600000402C603460387848280DD1234801683B
:10237000491C01602248047022480079C00703D13B
:1023800001212148FFF764F9387819231F49204AB1
:10239000422811D00127432811D05A2811D06C2887
:1023A00013D0542813D0722818D04C281AD074286F
:1023B00000D12C60BDE8F0870B601460FAE73C2088
:1023C00000E0912008601760F4E70B60F2E70C6012
:1023D0002C60C8F80040C9F8004001E01E202860C9
:1023E0003460E7E76FF01D002860E3E7FC0400209D
:1023F0000005002008050020EC040020F404002063
:10240000C40500200000002000080240F004002065
:1024100010000020FEE700000F4810B50D490160D4
:102420000421416000214FF440328160C0E9031271
:102430004FF480024261017641768176C176017760
:102440004177FEF79CFC002803D0BDE81040FEF762
:10245000DCB910BD00640040CC0700200F4810B567
:102460000D4901600421416000214FF44032816038
:10247000C0E903124FF48002426101764176817611
:10248000C17601774177FEF77AFC002803D0BDE8DA
:102490001040FEF7BAB910BD00680040F4070020F4
:1024A000154808B5016841F4001101600068002278
:1024B00000F40010009001210D20FFF745F90D20D8
:1024C000FFF734F9002201210F20FFF73DF90F201B
:1024D000FFF72CF9002201211020FFF735F9102019
:1024E000FFF724F9002201211120FFF72DF9BDE8A3
:1024F00008401120FFF71AB93038024030B587B0D4
:1025000014216846FDF7C8FF19480024016841F00E
:1025100004010160016801F004010591016841F0C6
:1025200080010160016801F080010591016841F0BE
:1025300001010160016801F001010591016841F0AC
:102540000201016000680B4D00F0020005900022BE
:102550000F212846FFF784F80F2000900120CDE9D5
:102560000104694628460394FEF77AFF07B030BDA0
:1025700030380240000802400C4810B50A4901609A
:102580004FF4E1314160002181600C22C160C0E95B
:1025900004128161C161FFF72DFD002803D0BDE861
:1025A0001040FEF732B910BD004C00401C0800205E
:1025B0000C4810B50A4901604FF4E1314160002137
:1025C00081600C22C160C0E904128161C161FFF722
:1025D00011FD002803D0BDE81040FEF716B910BD6C
:1025E0000044004060080020FEE7FEE7704730B579
:1025F00087B00546002000920290CDE903030C4607
:102600002846FEF7A8FAC3B2002BF9D00120FEF746
:1026100015FF0123224669462846FEF733F90028B4
:1026200000D0022007B030BD5FF0010202F5007358
:1026300098420DD1084BC2EBC20018440B6840F819
:10264000073D8B88838089798171D0B200F01CB8F6
:10265000521C092AEADB70476C050020C0EBC00160
:102660000748084410F8051D4078CA0904D0054AF7
:1026700002EB01210844704700EB01207047000085
:102680006C0500200100FFFF30B5411E174AC1EB69
:10269000C1039C18D25C647888B004EB0223134C0D
:1026A0004DF82130203C401E54F821209D1AA4F101
:1026B0002002B5F5805F52F8200003DBA0F5F8504A
:1026C000FF3805E015F5805F04DC41F6FF7528440E
:1026D00042F8210044F8213052F82100034A1844FE
:1026E000383242F8210008B030BD00006C050020EF
:1026F00010B54A1E072A28D8154A904202DD5242D8
:10270000904200DB104604290BD8124B040A03EB5D
:1027100041014FF4007201F8024D082348700D4941
:102720000EE00C4B091FC9B2083B03EB4101040A40
:1027300001F8024D08234870064940F2FF1208399B
:102740000548FFF754FF002010BD012010BD000018
:10275000F0D8FFFF1C000020F407002070B50D46E4
:1027600000EE100A491EC9B24B4A01EB0111B8EE46
:10277000C00A2DED048B02EB8104E8B284ED000A5F
:10278000FFF76CFF00EE100AB8EEC00A84ED010AF4
:1027900094ED020A84ED030A94EC020A30EE608A9A
:1027A00084ED028AE06B01F0B7FE41EC190B18EEE4
:1027B000100A01F0B1FE41EC100BFEF729F853ECC2
:1027C000192B51EC100B01F041FC03D29FED330AA1
:1027D00084ED020A94ED040AD4ED020A30EE200AD8
:1027E00084ED040AD4ED100AB4EEE00AF1EE10FA1A
:1027F00006DAF1EE600AB4EEE00AF1EE10FA01D862
:10280000B0EE600A84ED040A94ED050AD4ED020AE4
:1028100020EE200A84ED0A0A94ED060AD4ED040A9B
:1028200020EE200A84ED0B0A94ED020AD4ED030A8F
:1028300030EE600AD4ED070A20EE200A84ED0C0A7F
:10284000D4ED0A0A94ED0B1A70EE810A30EE800A7C
:1028500084ED0D0AD4ED080AB8EEE01AB4EEC10A10
:10286000F1EE10FA08DAD4ED090AB8EEE01AB4EE87
:10287000C10AF1EE10FA01D8B8EEE00AE9B284ED2F
:102880000D0ABDEEC00ABDEC048B10EE100ABDE8C7
:102890007040FFF72DBF0000240000200000000062
:1028A000704700002DE9F0472DED068BB0EE608AF1
:1028B000F0EE408A9FED379BB0EE490AF0EE690AD0
:1028C00000F0BEFB51EC100B01F028F900EE100AED
:1028D000F0EE690A20EE28AAB0EE490A00F014FCD6
:1028E00051EC100B01F01AF900EE100AF0EE690A33
:1028F00000EE48AAB0EE490ABDEECA1A11EE105A0F
:1029000000F09EFB51EC100B01F008F900EE100AEC
:10291000F0EE690A20EE088AB0EE490A00F0F4FBF6
:1029200051EC100B01F0FAF800EE100A1B4E1C4F90
:1029300000EE288A30683A684FF00009BDEEC80AF8
:1029400010EE104A291B414302FB00100121FFF742
:1029500005FF316804EB05083A6808FB01F002FB4B
:1029600001000221FFF7FAFE3068611B3A6841431B
:1029700002FB00100321FFF7F1FE3268396808FB03
:102980001290BDEC068B01FB02000521BDE8F0476B
:10299000FFF7E4BE0000000000000000F00400208B
:1029A00008050020FEF768BE70B592B03021684679
:1029B000FDF772FD14210CA8FDF76EFD1D480025E2
:1029C000016841F080510160006800F08050119072
:1029D0001948016841F4804101600068022400F454
:1029E0008040119001200090000401908001CDE909
:1029F00006400F260896C020CDE9090404200B905C
:102A00006846FEF7BFFF08B172B6FEE74FF4A0506C
:102A1000CDE90E504FF48050CDE90C6410900521A3
:102A20000CA8FEF7C3FE002801D072B6FEE712B074
:102A300070BD00004038024000700040024801684C
:102A400041F470010160704788ED00E008B513485B
:102A5000FFF79CF911481249006888421DD10168AE
:102A6000C943C90612D40168406800900B48FFF7BB
:102A700054F90C4800684168C1F1FF00C2B20A482D
:102A800002700A4803680AA0FDF78AFCBDE8084006
:102A9000FF220E490148FFF70DBC08BD1C080020AD
:102AA000004C0040A4080020F8040020040000208E
:102AB00074656D703A25642052785F6C656E3A25B6
:102AC0006420666C61673A2564000000C40500203C
:102AD00010B5806B0021C185C184FFF756F910BD88
:102AE00070B5846B2068406994F83D10C0F3C01045
:102AF0000025212904D118B1E584204600F08AF888
:102B00002068406994F83E10C0F38010222904D157
:102B100018B1E585204600F056F8206C40F0100012
:102B200020642046FFF731F970BD10B50146806B77
:102B300009680968C9052FD40021C18501680C31D5
:102B400051E8002F22F4807241E80023002BF5D1D8
:102B50000168143151E8002F22F0010241E80023FE
:102B6000002BF5D10168143151E8002F22F040020A
:102B700041E80023002BF5D1202180F83E10016BA5
:102B8000012909D101680C3151E8002F22F010020F
:102B900041E80023002BF5D1016B012902D0FFF79A
:102BA0009FFB10BD818DFFF7B7F810BD10B5806B8E
:102BB000016B012902D0FFF7A3FB10BD818D4908ED
:102BC000FFF7AAF810BD01680C3151E8002F22F47C
:102BD000907241E80023002BF5D10168143151E8CF
:102BE000002F22F0010241E80023002BF5D1016BF8
:102BF000012909D101680C3151E8002F22F010029F
:102C000041E80023002BF5D1202180F83E1000215F
:102C10000163704701680C3151E8002F22F0C002B7
:102C200041E80023002BF5D1202180F83D107047AA
:102C300008B590F83E10222901D0022008BD826814
:102C40004FF480539A4201D1016921B1816A9A42BD
:102C50001BD04AB10AE00268816A5268C2F30802D6
:102C60000A80816A891C08E0026972B102685268B0
:102C700002F07F020A70816A491C8162C18D491E7F
:102C80000904090CC18503D019E002685268F1E714
:102C90000168CA6822F02002CA600168CA6822F48A
:102CA0008072CA6001684A6922F001024A612021EB
:102CB00080F83E10016B012903D0FFF711FB0020C3
:102CC00008BD0021016301680C3151E8002F22F09A
:102CD000100241E80023002BF5D101680A68D206F2
:102CE00002D50A6849680091818DFFF715F8E6E77B
:102CF00070B5044600680169E26821F4405111434F
:102D000001612169A068E2690843616911430843D0
:102D10002168CA6849F20C639A430243CA6020687A
:102D20004169A26921F44071114341613149206830
:102D3000884202D03049884202D1FEF7E1FD01E02D
:102D4000FEF7CEFDE2690023192164253226B2F593
:102D5000004F626828D0A0FB0101930F9200FDF79D
:102D6000A8FA0146B0FBF5F06FF01802504301EBF2
:102D7000800006EB0010B0FBF5F000F0F002B1FBB4
:102D8000F5F002EB0012B1FBF5F06FF018035843B9
:102D900001EB800006EB0010B0FBF5F000F00F0037
:102DA00021681044886070BDA0FB010192185B414E
:102DB000FDF77FFA0146B0FBF5F00201B1FBF5F03B
:102DC0006FF01803584301EB800006EBC000B0FB26
:102DD000F5F000F0F80002EB4002B1FBF5F05843CB
:102DE00001EB800006EBC000B0FBF5F000F007003F
:102DF000D6E70000001001400014014038B58162A0
:102E000082850025134604460564222084F83E008E
:102E1000A26B1C48D063A26B1B481064A26B1B48BA
:102E2000D064A06B0A4605652168A06B091DFEF7FA
:102E3000CDFA206801684068009084F83C50206911
:102E400048B120680C3050E8001F41F4807140E820
:102E50000012002AF5D12068143050E8001F41F01C
:102E6000010140E80012002AF5D12068143050E832
:102E7000001F41F0400140E80012002AF5D1002077
:102E800038BD00002B2B0008AD2B0008E12A0008FC
:102E90002DE9F041984617460E460446069D27E068
:102EA000681C25D02DB1FEF7E1FBA0EB0800A8427D
:102EB0001ED920680C3050E8001F21F4D07140E882
:102EC0000012002AF5D12068143050E8001F21F0CC
:102ED000010140E80012002AF5D1202084F83D00CD
:102EE00084F83E00002084F83C000320BDE8F08117
:102EF0002068006836EA000004D00020B842CFD035
:102F00000020F3E70120F9E738B52B48FEF73EFF34
:102F100029482A49006888424DD10168C943C90639
:102F20003BD401684068009025A0FDF739FA22489B
:102F3000FEF7F3FE2548006840682549C0F1FF0010
:102F4000087024494878212827D1487A212824D19B
:102F50000B790C7A63F307024B799FED200A63F338
:102F60000F228B7992B263F3070000EE902ACB799F
:102F7000194963F30F20F8EE600A194B022C13D0A5
:102F800080EE801A81ED001A80B200EE900AF8EE11
:102F9000600A80EE801A83ED001ABDE83840FF22F7
:102FA00010490548FFF786B99FED0F1AC0EE811A48
:102FB000C1ED001AE8E738BD600800200044004079
:102FC00063616C6C6261636B000000006409002047
:102FD00004050020C20700200C0500200000C842A4
:102FE00010050020C30600200000C8C2FEE703B49D
:102FF00001984100009850EAC12018BF04204A0DF2
:1030000018BF40F0010040F2FF72B2EB515F08BF01
:1030100040F00200012808BF052002B070470907F0
:10302000090E002804DB00F1E02080F8001470474E
:1030300000F00F0000F1E02080F8141D7047000040
:1030400010B52F499FED2C1B2DED020B84B0059878
:1030500020F000408842D8BF9DED040B2DDD2949AA
:10306000884209D1049840B94FF00100FDF744FAB5
:1030700000F0A2FC06B010BD05DB9DED040B00F0D6
:103080008FFC06B010BD68469DED040B00F0A0F863
:1030900010F0030004BF9DED021B9DED000B0CD052
:1030A00001280ED09DED021B9DED000B022817D0CC
:1030B000012000F0DDFB06B010BD00F0A5FA06B05F
:1030C00010BD9DED021B9DED000B012000F0D0FB1B
:1030D00051EC100B00F016FD06B041EC100B10BDCA
:1030E00000F092FA51EC100B00F00CFD06B041EC30
:1030F000100B10BD000000000000000000000000E8
:10310000FB21E93F0000F07F10B52F499FED2C1BFC
:103110002DED020B84B0059820F000408842DCBF02
:1031200000209DED040B32DD2849884209D1049826
:1031300040B94FF00100FDF7DFF900F03DFC06B0AB
:1031400010BD05DB9DED040B00F02AFC06B010BDA0
:1031500068469DED040B00F03BF810F0030011D021
:10316000012818D09DED021B9DED000B02281AD0FE
:1031700000F04AFA51EC100B00F0C4FC06B041EC30
:10318000100B10BD9DED021B9DED000B012000F00A
:103190006FFB06B010BD9DED021B9DED000B00F016
:1031A00033FA06B010BD012000F062FB51EC100BA9
:1031B00000F0A8FC06B041EC100B10BD00000000B0
:1031C0000000000000000000FB21E93F0000F07F4C
:1031D0002DE9F14F04462DED020B2DED088B8AB041
:1031E0009FEDE70B80ED020B139EE74826F00045AC
:1031F00085420ADC9DED120B002084ED000B0AB025
:10320000BDEC088B03B0BDE8F08FE0489FEDE0AB6C
:103210009FEDE1BBA84247DDE14F9FEDE39B9FEDB2
:10322000E48B9DED120B53EC1A2B51EC100B002E7E
:103230001CDD01F087F841EC100BBD4208D053ECC7
:103240001B2B51EC100B01F07DF8C4E900010BE0E1
:1032500053EC192B51EC100B01F074F853EC182BB4
:1032600001F070F8C4E900010120C8E700F088FC13
:1032700041EC100BBD4208D053EC1B2B51EC100B52
:1032800000F07EFCC4E900010BE053EC192B51EC7B
:10329000100B00F075FC53EC182B00F071FCC4E926
:1032A00000014FF0FF30AAE7C348A84279DB9DED4B
:1032B000120B51EC100B00F0A0FB41EC180B9FED32
:1032C000C00B53EC102B00F0FDFE9FEDBF1B53EC29
:1032D000112B00F055FC00F05FFE074600F08BFE5E
:1032E00041EC190B53EC1A2B00F0ECFE53EC182BAD
:1032F00001F01CF841EC180B53EC1B2B51EC190B93
:1033000000F0E0FEDFF8C8A241EC100B4FEA1558C0
:103310000125FA4453EC102B51EC180B01F012F874
:10332000032DC4E900013DD0C1F30A5005EB45115E
:10333000A8EB00001139814234DA0AEB051BB0EE2C
:1033400048AA9BED000BF0EE68AA53EC102B51EC51
:10335000190B00F0B7FE41EC1B0B51EC1A0B53ECB0
:103360001B2B00F0EFFF41EC180B51EC1A0B53EC48
:10337000182B00F0E7FF53EC1B2B00F0E3FF9BED55
:10338000020B41EC1A0B53EC102B51EC190B00F013
:1033900099FE53EC1A2B00F0D5FF41EC100B6D1C7D
:1033A000B8E70EE0002EA8BF3846BFF628AF94ED70
:1033B000000B51EC100B00F0A5FBC4E900017842B2
:1033C0001DE7C6F3130040F4801EC6F30A50A0F2B6
:1033D000F530471100F01F05C5F12000DDF848B0B9
:1033E00008900020069007900520EC467949002DB2
:1033F00007EB0002794408BF51F8221009D051F8B8
:10340000223001EB8201AB404A68089922FA01F1AF
:103410001943A1FB0E26A1FB0B131A449A4234BF99
:103420000123002303EB06080CEB8003D3E901A67C
:103430000E448E4234BF0121002192448A4411B1CE
:10344000924502D903E0924501D2012100E000211A
:10345000C3E901A641444CF82010011EA0F101006F
:10346000C4DC029800F10050850F0298DDE9036783
:103470008000DDF8148000F0BEFD41EC1A0B3046F0
:1034800000F0D0FD9FED541B53EC112B00F01AFE01
:1034900041EC1B0B384600F0C5FD9FED511B53EC72
:1034A000112B00F00FFE41EC180B404600F0BAFD66
:1034B0009FED4D1B53EC112B00F004FE41EC190B5A
:1034C00051EC180B53EC192B00F05AFB53EC1B2B4F
:1034D00000F056FB53EC1A2B00F052FBCDE908012B
:1034E000002008909DED080B53EC1A2B51EC100BAB
:1034F00000F028FF53EC1B2B00F024FF53EC182B9B
:1035000000F020FF53EC192B00F010FF9FED381B4B
:1035100053EC112B00F0D6FD9FED370B41EC180B4F
:1035200053EC102B9DED080B51EC100B00F0CAFD75
:1035300053EC182B00F024FB9FED310B41EC180BE2
:1035400053EC102B9DED080B51EC100B00F0BAFD65
:1035500053EC182B00F014FB41EC100B139810F0F7
:10356000004F06D06D4251EC100B00F0CBFA41EC4D
:10357000100B284684ED000B41E60000000000001F
:103580000000000000000000FB21E93F7CD9024060
:1035900000004054FB21F93F3163621A61B4D03D11
:1035A000FB21F93F000000000000601A61B4D03D2B
:1035B0007370032E8A19A33BFB21394100000000E0
:1035C00083C8C96D305FE43F000000000000E03FA9
:1035D0004A13000098120000000000000000103E96
:1035E000000000000000103C000000000000103A45
:1035F000182D4454FB21F93D3326A611460B113CEE
:1036000000000054FB21F93D10B52DED040B2DED0C
:10361000088B82B0B0EE419AF0EE619A0B9820F0E0
:1036200000449FED4BABB4F1795F11DA9DED0A0BCD
:1036300051EC100B00F0B0FC002801BFB0EE4A0ABC
:10364000F0EE6A0A02B0BDEC088B04BF04B010BDF6
:103650009DED0A0B53EC102B51EC100B00F032FDDA
:1036600041EC180B3C480621B0EE480AF0EE680A1F
:10367000784400F081F853EC182B51EC100B00F05B
:1036800021FD9DED0A0B41EC1B0B53EC192B51EC6A
:10369000100B00F017FD41EC190B53EC1B2B51ECF8
:1036A000180B00F00FFD53EC192B00F04BFE9FEDB3
:1036B0002C0B41EC190B53EC102B51EC180B00F0B8
:1036C00001FD41EC100B2848844210DA53EC192B11
:1036D00051EC100B00F036FE53EC1A2B00F026FED6
:1036E00041EC100B02B0BDEC088B04B010BD1F48BC
:1036F000A042BCBF9FED1E1B8DED001B06DBA4F599
:1037000000100190002000909DED001B51EC100B6B
:1037100053EC112B00F016FE9DED000B41EC180B45
:1037200053EC102B51EC1A0B00F00CFE41EC1A0B71
:1037300053EC192B51EC180B00F004FE53EC1A2B30
:1037400000F0F4FD41EC100BCCE70000000000009D
:10375000000000000000F03FBC0F0000000000006F
:10376000000000000000E03F3333D33F0000E93F9A
:10377000000000000000D23F70B504462DED028B22
:103780004D1E00EBC500B0EE408AF0EE608A90ED71
:10379000000B35F0060017D053EC182B51EC100B32
:1037A00000F090FC41EC100B6D1E04EBC50090ED99
:1037B000001B51EC100B53EC112B00F0E1F941EC24
:1037C000100B35F00600E7D1022D36D0042D1CD0A9
:1037D000062D1CBFBDEC028B70BD53EC182B51ECB9
:1037E000100B00F06FFC94ED0A1B53EC112B00F052
:1037F000C7F953EC182B00F065FC94ED081B53EC53
:10380000112B00F0BDF941EC100B53EC182B51ECCF
:10381000100B00F057FC94ED061B53EC112B00F03D
:10382000AFF953EC182B00F04DFC94ED040B53EC66
:10383000102B00F0A5F941EC100B53EC182B51ECB8
:10384000100B00F03FFC94ED021B53EC112B00F029
:1038500097F953EC182B00F035FC94ED001B53EC5A
:10386000112B00F08DF9BDEC028B41EC100B70BDFB
:1038700031B504462DED040B2DED0A8BB0EE41BAA7
:10388000F0EE61BA0B989DED0A0B20F00040B0F10C
:10389000795F0DDA51EC100BFFF7A9FB042808BF84
:1038A00000F09AF89DED0A0BBDEC0A8B05B030BD17
:1038B00053EC102B51EC100B00F004FC41EC180BF6
:1038C0009DED0A0B53EC182B51EC100B00F0FAFB9A
:1038D00041EC190B2C48B0EE480AF0EE680A0521BD
:1038E0007844FFF749FF9FED2ACBB0EE40AAF0EEF7
:1038F00060AA9CB353EC1C2B51EC190B00F0E2FBBB
:1039000041EC1C0B53EC1A2B51EC190B00F0DAFBB9
:103910009FED210B41EC190B53EC102B51EC1B0BC1
:1039200000F0D0FB53EC192B00F00CFD53EC182BDE
:1039300000F0C8FB53EC1B2B00F004FD53EC1C2BD8
:1039400000F000FD9DED0A1B53EC112B00F0EEFC86
:10395000BDEC0A8B05B041EC100B30BDFFE753EC1A
:103960001A2B51EC180B00F0ADFB53EC1C2B00F0A4
:1039700007F953EC192B00F0A5FB9DED0A1B53EC46
:10398000112B00F0FDF8E3E7440E000000000000FA
:10399000495555555555C5BF000000000000E03F92
:1039A00010B553EC102B51EC100B00F0E9F841EC82
:1039B000100B10BD000000009FED050B10B553EC7F
:1039C000102B51EC100B00F08FF941EC100B10BDD7
:1039D00000000000000000009FED050B10B553EC47
:1039E000102B51EC100B00F06DFB41EC100B10BDD7
:1039F0000000000000000010704782B0CDE9000117
:103A000021F0004001909DED000B02B051EC100B35
:103A10007047000004490A685206FCD5024AC1B248
:103A2000121D1160704700000044004010B500688E
:103A300000EE100AB1EE400A10EE100A00F06CFD24
:103A40009FED051B53EC112B00F07CFC00F066F899
:103A50000349086010BD00002D431CEBE2361A3FFD
:103A600000000020FDF710FEFEF79EFFFEF746FD6A
:103A7000FEF716FDFEF780FDFEF7CEFCFEF7EEFC2E
:103A8000FEF796FD1748FCF715FE1748FCF712FEE7
:103A900016480068C16841F01001C160FF22144956
:103AA0001248FEF707FC13480068C16841F0100196
:103AB000C1600F49FF22FF310E48FEF7FBFB0EA04D
:103AC000FCF76EFC0E4C0A482178FEF71BFC94EDC7
:103AD000020AF8EEC00A94ED010AB8EEC00AFEF739
:103AE000E1FEF0E7F4070020CC0700201C080020CE
:103AF000C405002060080020626567696E00000050
:103B0000F804002081F00041704780F000407047C9
:103B100021F00041704720F00040704721F0004242
:103B2000A2F16052B2F5801F01F0004328BFD2F12C
:103B30007F6C0BD95FEA001C43EAC20242EB507073
:103B400018BF704728BF20F001007047B2F5801FF2
:103B5000BCBF184670474FEA410C1CF5001F02D24B
:103B6000084600F04FBD70B500F056FB000000891C
:103B7000FFF7F6BF4FF00040A0F58000704700004F
:103B800010B591EA030F48BF83F0004300F1E283D0
:103B9000841A71EB030C05D2121943EB0C03001BC2
:103BA00061EB0C01DFF824E14FEA1154A4EB135C44
:103BB0001EEA430F18BF9EEA445F73D023EA0E0348
:103BC000DCF1200E21EA045143F4801332D322FAAF
:103BD0000CFE10EB0E0023FA0CFE41EB0E01CCF1B3
:103BE000200E03FA0EFE10EB0E0051F10001B1F5AC
:103BF000801FCCF1200E32D201EB045112FA0EF2EA
:103C0000BDE8104058BF7047401C38BF5FEA420211
:103C100018BF7047002814BF20F0010041F10001D7
:103C20004FEA410313F5001F38BF7047A1F1C041AF
:103C300000F040BB012A43EB0302ACF1200CDCF1A5
:103C40001F0E32BF4FF0000E23FA0CF310EB0300EF
:103C500041EB0451B4EB115FD0D0A1EB045101F55D
:103C6000801149085FEA300001EB04510ED350F196
:103C7000000038BF12FA0EFE08D1BDE81040C9E7B7
:103C8000401C38BF5FEA4202CAD1C3E7BDE810401A
:103C90004FEA410313F5001F38BF7047A1F1C0413F
:103CA00000F008BB9EEA445F08D011EA5E0FBDE851
:103CB000104004BF01F0004100207047BDE81040F3
:103CC00070B500F0A9FA00BF64FBBE3E0000E0FF43
:103CD000491058BFC1F140415B1058BFC3F1404388
:103CE0008B42EFF3008070472DE9C04130B4DFF81C
:103CF000A0C23CEA111418BF3CEA131400F0EC8097
:103D000081EA03051CEA111444EAD57418BF1CEAC1
:103D1000131500F0C780A4EB05044FF0004545EAF9
:103D2000C12145EAC32341EA505143EA525304F109
:103D30007F74994204F500344FEAC0204FEAC22252
:103D400008BF904200F09C804FEA13650FF24016C6
:103D5000765D4FEA134506FB05F7C7F1807706FB52
:103D600007F74FEAD737A7FB03687642C8F58038D4
:103D7000A7FB06CE38BFA8F1010807FB08E64FF005
:103D8000000EA6FB028CE6FB03CEDCF1000CCEF1AC
:103D9000004E38BFAEF1010EA6FB0C584FF00007E5
:103DA0004FF00005E6FB0E87A1FB08C6A0FB07CE7F
:103DB00016EB0E0645F10005E1FB076515F1E04E37
:103DC0007EBFA4F580345FEA46066D4116F1800798
:103DD00045F100054FEA17274FEA066647EA0567EF
:103DE000A6F1DE46B6F1805F4FEA15251FD93846A9
:103DF00024F0010C05EBC471BCF1FE6F01EB0C115A
:103E000002D8F0BCBDE8008124425CBF01F5801EF1
:103E10009EEAC47F02D4F0BCBDE80081244238D4BD
:103E2000F0BCA1F1C041BDE8004100F043BA4FEA47
:103E3000D22242EA43524FEAD323A7FB02864FEA3B
:103E4000D02040EA415007FB03661EEA0E0F4FEAFE
:103E5000D12105FB026658BFA6EB0056B6EB005613
:103E60004FEA520E4EEAC37E18EB0E0E56EB530E7F
:103E7000BDD518EB02085E417F1C55F10005B6E781
:103E80004FF480154FF000074FF000064FF0000888
:103E9000ADE7F0BC4FF0000001F1C04101F000417E
:103EA000BDE8008111EA0C1F0CEA131500D00CE0EC
:103EB00013EA0C1F00F025804FF00000F0BC81EAEF
:103EC000030101F00041BDE80081F0BCBDE8004104
:103ED00081EA030100F0EEB9F0BCBDE8004170B525
:103EE00000F09AF9097EFC3E00F007B881EA030170
:103EF0004FF0000001F00041704781EA030100F03B
:103F0000D9B9F0BCBDE800414FF00000214970472D
:103F1000FFFDFBF9F7F5F4F2F0EEEDEBE9E8E6E48E
:103F2000E3E1E0DEDDDBDAD8D7D5D4D3D1D0CFCD15
:103F3000CCCBCAC8C7C6C5C4C2C1C0BFBEBDBCBB4E
:103F4000BAB9B8B7B6B5B4B3B2B1B0AFAEADACAB49
:103F5000AAA9A8A8A7A6A5A4A3A3A2A1A09F9F9E23
:103F60009D9C9C9B9A9999989797969595949393D5
:103F7000929191908F8F8E8E8D8C8C8B8B8A89896C
:103F800088888787868585848483838282818180EF
:103F90000000FF070000F87F4FEA41034FEA535348
:103FA000A3F58063D3F11E03C8BFD3F1210C0CDD50
:103FB0004FF0004242EAC12242EA505232FA03FC78
:103FC0008CEAE17CACEBE1707047102BC4BF0020A1
:103FD000704703F5787CBCF1FF3F04D06FF00042DE
:103FE00082EA2100704770B500F016F949922480EA
:103FF00000207047F2E710F0004248BF4042B0FA9C
:1040000080F310FA03F10AD0C3F11D0303F58063B6
:104010004FEA415002EB035202EBD12170474FF0BF
:1040200000007047B0FA80F310FA03F10AD0C3F130
:104030001D0303F580634FEA41504FEA035202EB40
:10404000D12170474FF000007047000051EA030C87
:1040500017D41CF5801F58BFBCF5801F00F10680E7
:10406000994218BF704708BF9042704707D711F5B3
:10407000801F58BF13F5801F19D499427047894299
:1040800070471CF5801F08D5BCF5801FF7D58B4203
:1040900018BF704708BF824270474FF4001C1CEBEA
:1040A000410F38BF1CEB430F01D28B42704770B5F4
:1040B00000F0B2F8922449004FF000514FF08053C5
:1040C000FFF706BEDFF848C170B51CEA111E1EBF1F
:1040D0001CEA13159EEA0C0F95EA0C0F00F06F8096
:1040E00081EA030423EA4C134EEAD47E21EA4C1100
:1040F00041F4801143F48013AE44A1FB024CA0FBB9
:104100000365AEF17F7E361955EB0C05A1FB034C20
:104110004CF10003A0FB021C16EB0C06654153F1A9
:104120000003094218BF46F0010613F4007F0BD1CB
:104130004FEA03314FEA0530340341EA155140EAB2
:1041400016506FF003020AE04FEAC3214FEAC52080
:10415000F40241EA555140EA56506FF0020202EB78
:104160002E4201EB025585EACE710AD05FEA440C7B
:1041700018BF24F0004450F1000041F1000120EA92
:10418000D47040F2FE7C624500D270BDA84214BFDC
:104190004FF080444FF04044002E08BF0024BEF191
:1041A000806FA8BFA1F1C041BDE8704080F282805D
:1041B0004FF0000001F1C04101F0004170479EEA5C
:1041C0000C0F0CEA131518BF95EA0C0F06D04FF030
:1041D000000081EA030E0EF0004170BD00F01CF8F3
:1041E0008900013E00F007B800F009B84FEA430C1F
:1041F0005FEA5C5C08D081EA030100F05BB84FEA3B
:10420000410C5FEA5C5CF6D14FF000000149704759
:104210000000FF070000F87F0EF1020E2EF0030EE3
:104220005EF8046B364205D4012A43EB030515F50D
:10423000001F12D8012841EB010C1CF5001F0CD8FF
:104240000ED14FEAD17C15F5001F0CEB4C0C0CF194
:10425000020C08BF4CEBD37C04E04FF0080C01E0EB
:104260004FEAD37C0CEB4C0526FA05F606F0070660
:10427000B6F1040C06D20EEB860CBDE870404CF093
:10428000010C6047DFE80CF0090B02024FF000411F
:104290004FF00000A1F5002170BD1946104601281D
:1042A00051EB010418BFD4F5001484BF002001F0C5
:1042B000004170BD0808A0F500114FEA31017047B8
:1042C00053EA010C17D41CF5801F58BFBCF5801FA2
:1042D00000F106808B4218BF704708BF82427047CA
:1042E00007D713F5801F58BF11F5801F19D48B42D3
:1042F00070479B4270471CF5801F08D5BCF5801F96
:10430000F7D5994218BF704708BF904270474FF4E5
:10431000001C1CEB430F38BF1CEB410F01D299422C
:1043200070470FB40CBC03BCFFF7C1BE91EA030F8A
:1043300010B581F000413FF52BAC83F0004300F055
:1043400009B8000010B591EA030F48BF83F000439D
:104350003FF51EAC841A71EB030C07D212198CF0D6
:10436000004C43EB0C03001B61EB0C01DFF8A4E1F4
:104370004FEA1154A4EB135C1EEA430F18BF9EEAE8
:10438000445F00F0B08023EA6E03524221EA0451F8
:10439000C3EB6E0338BF5B1EDCF1200E25D322FA7F
:1043A0000CFE10EB0E0043FA0CFE41EB0E01CCF1BB
:1043B000200E03FA0EFE10EB0E0051F10001CCF1BD
:1043C000200E29D412FA0EF201EB0451BDE8104080
:1043D00058BF7047401C1CBFB2F1004F7047002807
:1043E0000CBF491C20F00100704712EB020E43EB9A
:1043F000030218BF4FF0010E4EEA4202ACF1200C4E
:10440000DCF11E0E54D943FA0CFE10EB0E0051F1F4
:10441000FF31CCF11E0ED5D50EF1010E12FA0EFEB3
:10442000404141EB010101EB445C5FEA5C5C10D967
:1044300010EBDE7001EB045138BFBEF1004FBDE858
:10444000104018BF704700280CBF491C20F0010025
:10445000704730D24FEAD42C11F5001124F40064D7
:104460001BD0B1FA81F20B3AA41AA41ED2F1200398
:10447000914030FA03F31943904001EBCC71002CCA
:1044800001EB0451BDE81040A8BF704701F1C041E5
:104490004FF0000001F000417047B0FA80F310FACD
:1044A00003F100D110BDE41A173C4805C90AE4E73E
:1044B00001EB045110BD491001EB0451BDE810405F
:1044C0004FEA300002E04FF0000170474A0008BF99
:1044D0000042F8D0B2F5001F28BF704701F000413C
:1044E0004FF0000070479EEA445F07D011EA5E0F6C
:1044F000BDE8104004BF002100207047BDE8104017
:1045000070B5FFF789FE00BF40DFF63E83F0004143
:10451000104670470000E0FF43004FEAD30C4FEA1B
:104520003C0C43401FBF40070CF1605113F0FE4F9D
:1045300070471CF0006F03D100200CF00041704761
:104540000CF0004343EA507010B540EACC0000F094
:104550000EF800BF000000924FEA0001FFF7AABE6C
:104560004FF000414FF00000A1F5002170470EF11F
:10457000020E2EF0030E5EF8044B244204D44FEAE0
:104580004102B2F17F4F11D84FEA4003B3F17F4FA0
:104590000CD80ED14FEAD07CB2F17F4F0CEB4C0C13
:1045A0000CF1020C08BF4CEBD17C04E04FF0080C7E
:1045B00001E04FEAD17C0CEB4C0324FA03F404F045
:1045C0000704B4F1040C06D20EEB840CBDE81040D5
:1045D0004CF0010C6047DFE80CF0070802024FF0D6
:1045E0000040A0F5800010BD0846420018BFD2F17F
:1045F000807288BF00F0004010BD4FF04070E1EEC7
:10460000100A7047FF2141EAD050C00570470006EC
:104610001016000610160000000000000000010245
:10462000030406070809000000000102030400005B
:104630004C5555555555A53F7751C1166CC156BFC0
:104640009015CB19A001FA3EAD529C804F7E92BED0
:10465000C4B1B4BD9EEE213ED43888BEE9FAA8BDEF
:1046600000004054FB21F93F3163621A61B4D03D30
:104670000000601A61B4D03D7370032E8A19A33B09
:104680000000002E8A19A33BC14920259A837B395B
:1046900000000000000000006E83F9A22915444EBE
:1046A000D15727FCC0DD34F5999562DB4190433C3E
:1046B000AB6351FE61C5BBDE3A6E24B7E0D24D421A
:1046C000EA2E49061C92D1091CEB1DFE3EA729B11A
:1046D000F53582E88444BB2E26709CE9417E5FB4A8
:1046E00039D69139F43953838B5F849C3B28F9BDCB
:1046F000FF97F81F0F9805DE8B112FEF1F6D0A5AD9
:10470000CF7E366DB709CB27663F464F2DEA5F9EB9
:10471000C7BA27757BF1E5EBF739073DEA92528A74
:10472000B15FFB6B085D8D1FA6F810111111813F61
:10473000D561C119A0012ABF7DFEB157E31DC73E57
:10474000EB9C2B8AE6E55ABE7CD5CF5A3AD9E53D9B
:1047500070470008000000202C050000C40100087C
:104760001C4800082C0500205C0B000020020008FB
:10477000013A374841CDCCCC3D243F803E051680E0
:10478000C1FFFF2320410B5C7A44440A3D4C441A8C
:10479000881C111A40030A7C40CC112988298B0AF5
:1047A0004041441940097B4447803E0AD7233C23BB
:1047B000B0360B1650C94413C8420414409C4669D5
:1047C000400964443109154449E8093C440D41CD90
:1047D000CCCC3DCC0E3C3E6F12833ACC112E3F0A1E
:1047E000D7A33BD4091C440B184843CC4B4C404442
:1047F000091E880B18FA44881B2041D02A3C083235
:10480000030B17FDFFCC0A183F440A2B70442358B2
:0C48100002022B01292C82101324F4005A
:040000050800018965
:00000001FF
