:020000040800F2
:1000000040080020CD010008E3140008FB1300089D
:10001000E1140008C10300085D180008000000009A
:10002000000000000000000000000000E7140008CD
:100030003304000800000000E5140008E91400087B
:10004000E7010008E7010008E7010008E7010008F0
:10005000E7010008E7010008E7010008E7010008E0
:10006000E7010008E7010008E7010008E7010008D0
:10007000E7010008E7010008F1030008FD0300089C
:10008000E7010008E7010008E7010008E7010008B0
:10009000E7010008E7010008E7010008E7010008A0
:1000A000E7010008E7010008E7010008E701000890
:1000B000E7010008E7010008E7010008E701000880
:1000C000E7010008E7010008E7010008E701000870
:1000D000E701000815180008E7010008E70100081B
:1000E000E7010008E7010008E7010008E701000850
:1000F000E7010008E7010008E7010008E701000840
:10010000E7010008E7010008E7010008E70100082F
:10011000E7010008E7010008E7010008E70100081F
:10012000E7010008E7010008E7010008E70100080F
:1001300000F002F800F03AF80AA090E8000C8244BF
:100140008344AAF10107DA4501D100F02FF8AFF29C
:10015000090EBAE80F0013F0010F18BFFB1A43F0A5
:100160000103184780170000A0170000103A24BFB1
:1001700078C878C1FAD8520724BF30C830C144BF0C
:1001800004680C607047000000230024002500264E
:10019000103A28BF78C1FBD8520728BF30C148BFEA
:1001A0000B6070471FB51FBD10B510BD00F0C2F841
:1001B0001146FFF7F7FF01F06FFB00F0F4F803B40E
:1001C000FFF7F2FF03BC01F05AFB0000094880472B
:1001D00009480047FEE7FEE7FEE7FEE7FEE7FEE729
:1001E000FEE7FEE7FEE7FEE704480549054A064B41
:1001F000704700004D150008310100084002002042
:100200004008002040040020400400207047000007
:100210000FB4044910B503AA029800F03BF810BCD3
:100220005DF814FB0000002001F0FF03114601B54A
:1002300043EA032242EA024200F040F801BD4FF0D7
:10024000000200B5134694469646203922BFA0E826
:100250000C50A0E80C50B1F12001BFF4F7AF090732
:1002600028BFA0E80C5048BF0CC05DF804EB890023
:1002700028BF40F8042B08BF704748BF20F8022B66
:1002800011F0804F18BF00F8012B7047704770477E
:1002900070477047074B70B50D467B4400F033F84C
:1002A0000446284600F042F810B14FF0FF3070BD10
:1002B000204670BDE31500004FF000020429C0F095
:1002C000128010F0030C3FF4BCAFCCF1040CBCF175
:1002D000020F18BF00F8012BA8BF20F8022BA1EBDA
:1002E0000C01FFF7AEBF5FEAC17C24BF00F8012B11
:1002F00000F8012B48BF00F8012B704701694A1C28
:1003000002610878704700B58FB0CDE90131002156
:10031000059105497944CDE903101146684600F07E
:100320002EF80FB000BD0000E5FFFFFF007B00F0DE
:1003300080007047754600F03FF8AE4605006946FC
:10034000534620F00700854618B020B5FFF74CFF54
:10035000BDE820404FF000064FF000074FF00008C6
:100360004FF0000B21F00701AC46ACE8C009ACE847
:10037000C009ACE8C009ACE8C0098D4670472DE95A
:10038000F04106460024D6E90170F5688046304603
:1003900003E04146B847641C3046A8470028F8D11E
:1003A0002046BDE8F08110B50446AFF3008020463A
:1003B000BDE81040FFF703BF00487047DC01002094
:1003C000FEE7000010B504A0FFF722FFBDE81040D3
:1003D0004021064800F05EBB63616C6C6261636B38
:1003E0002066756E6374696F6E0000000010014036
:1003F000014800F0B9B8000098010020014800F061
:10040000B3B800005401002030B590F840500124EA
:10041000AC40C56B6C60046863604368102B036874
:1004200003D099600068C26030BD9A600068C16006
:1004300030BD704772B6FEE72DE9F05F90F82110ED
:100440000024022903D004218163012485E001688E
:100450000A6822F00E020A6001680A6822F00102AE
:100460000A603F4E3E4FB215DFF8F4C0DFF8F0905F
:10047000DFF8ECA0DFF8E8B0DFF8E4E00168783FEF
:1004800013011502ACF1640CA9F15009AAF13C0A60
:10049000ABF1280BAEF1140E4FF48018B14227D9FE
:1004A000B9420ED0614512D049451DD0514518D0F2
:1004B000594518D0714501D1424615E0294EB14247
:1004C00001D1012210E0274E1436B14201D1102291
:1004D0000AE0244E2836B14206D0224A3C329142EC
:1004E00001D11A4600E02A461E49091F0A602BE086
:1004F000B94213D0614517D0494522D051451DD08E
:1005000059451DD0714501D142461AE0B14202D190
:100510004FF0807215E0134EB14201D1012210E07C
:10052000104E1436B14201D110220AE00D4E283689
:10053000B14206D00B4A3C32914201D11A4600E04A
:100540002A46074980394A60012180F8211000219C
:1005500080F82010416B01B188472046BDE8F09F2C
:1005600080000240080402402DE9F05FC16B0A6878
:1005700001680B68046C4FF0040808FA04F8844D15
:10058000844E854FDFF814C2DFF81492DFF814A20E
:10059000DFF814B2DFF814E218EA020F65D05FEA60
:1005A000437862D50A68920603D40A6822F00402EE
:1005B0000A60DFF8F0814FF48062016808F11408E6
:1005C00013011402414524D9A9420DD0B1420FD0E4
:1005D000B9421AD0614515D0494515D0514501D1D0
:1005E000120312E0594501D104220EE0714501D1F8
:1005F00040220AE06D4D1435A94206D06B4A2832DC
:10060000914201D11A4600E022466749091F0A605B
:1006100029E0A94213D0B14215D0B94220D061459A
:100620001BD049451BD0514502D14FF4800217E041
:10063000414502D14FF0806212E0594501D10422B8
:100640000EE0714501D140220AE0584D1435A9420F
:1006500006D0564A2832914201D11A4600E022467D
:100660004B4908394A60C16A71E04FF0020808FA44
:1006700004F818EA020F70D05FEA83786DD50A6833
:10068000920606D40A6822F00A020A60012180F864
:100690002110DFF810814FF40072016808F114088E
:1006A00013011402414524D9A9420DD0B1420FD003
:1006B000B9421AD0614515D0494515D0514501D1EF
:1006C000120312E0594501D102220EE0714501D119
:1006D00020220AE0354D1435A94206D0334A28328B
:1006E000914201D11A4600E022462F49091F0A60B3
:1006F00029E0A94213D0B14215D0B94220D06145BA
:100700001BD049451BD0514502D14FF4001217E0D0
:10071000414502D14FF0007212E0594501D1022249
:100720000EE0714501D120220AE0204D1435A94286
:1007300006D01E4A2832914201D11A4600E02246D4
:10074000134908394A60002180F82010816A002985
:100750001CD0BDE8F05F0847FFE70825A54015421B
:1007600014D01A0712D50A6822F00E020A6090F817
:100770004020C36B012101FA02F25A60816380F8C4
:100780002110002180F82010016BE0E7BDE8F09F08
:10079000080002401C0002403000024044000240B9
:1007A000580002406C000240080402401C04024051
:1007B00030B560B11A4B026814219A4209D2194B24
:1007C0001344B3FBF1F18900016417490AE00120E9
:1007D00030BD134B5B421344B3FBF1F1890001645C
:1007E0000F490839C163022180F82110136843F6CC
:1007F000F0718B43F0E901142143D0E902452C4309
:1008000021430469214344692143846921431943F5
:10081000116000214163012242770177084630BD13
:1008200008040240F8FFFDBF0000024070B5044616
:1008300090F82000002501280CD0012084F8200029
:1008400094F821600020012E06D084F820000225B3
:10085000284670BD022070BD022684F82160A06386
:100860002068066826F0010606602046FFF7CCFDEA
:10087000E06A00282068016802D041F00E0106E01D
:1008800021F0040101602068016841F00A01016063
:100890002068016841F001010160D9E72DE9F84FB6
:1008A000DFF8C891002409F1040A0AF1040B234679
:1008B0000F270BF1040ED1E00125A54006EA050241
:1008C000AA4276D1DFF8A8C14E68A6EB0C086645AF
:1008D0002BD00DDC032E34D005DC36B3012E19D01D
:1008E000022E2FD11BE0112E16D0122E2AD119E084
:1008F000B8F5881F19D006DCB8F5803F15D0B8F5DB
:10090000801F1FD111E0B8F5001F0ED0B8F5041FED
:1009100018D10AE0CB6815E0CB681B1D12E0CB684C
:1009200008330FE0CB680C330CE08B682BB1012B44
:100930004FF0080303D0456104E0042302E00561A1
:1009400000E00023FF2A01D8064601E000F104067A
:100950004FEA840501D9A5F12005D6F8008007FAF1
:1009600005FC28EA0C0803FA05F548EA0508C6F86C
:1009700000804D68ED0070D53E4DAE6946F0010631
:10098000AE61AD6924F0030605F0010500953A4D0E
:1009900006EB050CDCF80850A607360F07FA06F838
:1009A00025EA0805DFF8D480404503D14FF0000860
:1009B00025E052E0DFF8C880404502D14FF0010841
:1009C0001DE0DFF8C080404502D14FF0020816E07C
:1009D000DFF8B480404502D14FF003080FE0DFF8A4
:1009E000AC80404502D14FF0040808E0DFF8A08059
:1009F000404502D14FF0050801E04FF0060808FA23
:100A000006F848EA0508CCF808804D68D9F8006077
:100A1000ED034D4601D5164300E096432E604D6828
:100A2000DAF80060AD03554601D5164300E0964361
:100A30002E604D68DBF80060ED025D4601D516437F
:100A400000E096432E604D68DEF80060AD0275460A
:100A500001D5164300E096432E60641C0A681646D2
:100A6000E2407FF429AFBDE8F88F000000040140A8
:100A70000000111000100240000001400008014079
:100A8000000C01400010014000140140001801401A
:100A9000001C0140C2680A4201D0416170470161F7
:100AA00070470AB1016170470904FBE7014880689B
:100AB0007047000004000020024881680278114459
:100AC0008160704704000020074810B5016841F0BC
:100AD00010010160032000F075F80F2000F006F807
:100AE00000F024F8002010BD0020024070B50D4D2C
:100AF00004464FF47A712878B1FBF0F00A4909688E
:100B0000B1FBF0F000F0ECFA48B9102C07D200224B
:100B10002146501E00F036F800206C6070BD0120A8
:100B200070BD000004000020100000200C4808B533
:100B3000816941F001018161816901F00101009148
:100B4000C16941F08051C161C06900F080500090DE
:100B50000448416821F0E06141F00071416008BD46
:100B60000010024000000140002809DB00F01F02D5
:100B7000012191404009800000F1E020C0F80011FF
:100B800070470000F0B40E4B1B680C46C3F3022301
:100B9000C3F10705042D00D90425191D072901D229
:100BA000002300E0DB1E012606FA05F1491E214064
:100BB00099409E40761E16403143F0BC00F04FBE77
:100BC0000CED00E0064900F0070208684FF6FF034D
:100BD000184040EA0220034A1043086070470000B2
:100BE0000CED00E00000FA052DE9F0470F46050086
:100BF00061D0434E306800F00700B84209D2306837
:100C000020F0070038433060306800F00700B84239
:100C100051D128683B4C810712D5400703D5606845
:100C200040F4E06060602878000703D5606840F415
:100C3000605060606068A96820F0F0000843606060
:100C40002878C00728D06868012810D021680228B9
:100C500010D0890700292EDA616821F003010143D1
:100C60006160FFF723FF804641F288390DE021687B
:100C70008903EFE78901EDE7FFF718FFA0EB080113
:100C8000494502D90320BDE8F0876068696800F033
:100C90000C00B0EB810FEFD1306800F00700B842D4
:100CA0000BD9306820F0070038433060306800F01E
:100CB0000700B84201D00120E5E72878400705D5B4
:100CC0006068E96820F4E060084360602878000705
:100CD00006D56068296920F4605040EAC100606070
:100CE00000F038F86168084AC1F30311515CC8404C
:100CF0000649086006480068FFF7F8FE0020C2E7D2
:100D00000020024000100240CC1800081000002013
:100D1000080000200448054900684968044AC1F3F6
:100D20000221515CC84070471000002000100240B2
:100D3000DC1800080448054900684968044AC1F302
:100D4000C221515CC84070471000002000100240D2
:100D5000DC18000812A185B00FC98DE80F0014A09F
:100D6000144A006804905168134801F00C03042BE6
:100D700010D0082B0ED1C1F38343C9031DF8030023
:100D80000AD5516804AAC1F34041515C0A4A504354
:100D9000B0FBF1F005B0704708494843FAE700009E
:100DA00002030405060708090A0B0C0D0E0F1010AC
:100DB000010200000010024000127A0000093D000C
:100DC0002DE9F84F040070D02078C04DC00749D0FD
:100DD0006868C0F38100012807D06868C0F381000B
:100DE000022809D16868C00306D52868800339D570
:100DF00060680028E7D035E06068B0F5803F0BD030
:100E000010B1B0F5A02F11D0286820F480302860F0
:100E1000286820F4802002E0286840F480302860B0
:100E2000606890B1FFF742FE06460AE0286840F489
:100E300080202860F0E700BFFFF738FE801B6428A1
:100E400073D828688003F7D50CE0FFF72FFE06461D
:100E500005E000BFFFF72AFE801B6428F0D8286851
:100E60008003F7D420789A4E80074FF001094FF0A5
:100E7000000839D5686810F00C0F07D06868C0F317
:100E80008100022809D16868C00306D42868800759
:100E900014D52069012808D110E02069B0B1C6F846
:100EA0000090FFF703FE074605E00AE1FFF7FEFDAD
:100EB000C01B0228C4D828688007F7D52868616954
:100EC00020F0F80040EAC10028600DE0C6F800807C
:100ED000FFF7ECFD074604E0FFF7E8FDC01B022822
:100EE00023D828688007F7D4207800072CD57948C4
:100EF000A169D9B1C0F80090FFF7D8FD074604E01A
:100F0000FFF7D4FDC01B02280FD8686A8007F7D509
:100F100071484FF4FA510068B0FBF1F0009000BF47
:100F20000098411E0091FAD20EE080E0C0F80080E7
:100F3000FFF7BCFD074604E0FFF7B8FDC01B022821
:100F400075D8686A8007F7D42078400760D5E869CB
:100F50000027C00008D4E86940F08050E861E869E3
:100F6000012700F0805000905C480168C90513D447
:100F70000168834641F480710160FFF797FD824666
:100F800006E000BFFFF792FDA0EB0A0064284ED8F0
:100F9000DBF80000C005F5D5E06801280AD008B1EB
:100FA000052813D0286A20F001002862286A20F062
:100FB000040002E0286A40F001002862E06841F283
:100FC000883B98B1FFF772FD82460BE0286A40F03B
:100FD00004002862EEE700BFFFF768FDA0EB0A01FE
:100FE00059455AD8286A8007F6D50CE0FFF75EFD10
:100FF000824605E0FFF75AFDA0EB0A0159454CD89F
:10100000286A8007F6D41FB1E86920F08050E861B3
:10101000E06988B36968C1F38101022944D00228DC
:10102000C6F8608004D0FFF741FD044638E034E0A4
:10103000FFF73CFD074604E0FFF738FDC01B022820
:101040002BD828688001F7D4206AB0F5803F05D1FD
:101050006868A16820F4003008436860D4E908019A
:101060000843696821F4741108436860C6F8609009
:10107000FFF71CFD044606E025E000BFFFF716FD64
:10108000001B022809D828688001F7D51BE000BFA3
:10109000FFF70CFD001B022802D90320BDE8F88FE2
:1010A00028688001F4D40EE00128F7D06868226A2D
:1010B00000F48031914204D1616A00F470108842DA
:1010C00001D00120EAE70020E8E70000001002401C
:1010D00000004242800442421000002000700040A4
:1010E00010B5401EB0F1807F01D3012010BD4FF03C
:1010F000E02460610F21601700F0B1FB0020A061C7
:1011000007202061002010BD7047000070B5026804
:1011100004461068D168536910F00F0F50D003F0E7
:10112000010501F4907635435DD0C20705D0CA05AC
:1011300003D5E26B42F00102E263420705D5DA070C
:1011400003D0E26B42F00202E263820705D5DA07C0
:1011500003D0E26B42F00402E263020705D5DA072E
:1011600003D0E26B42F00802E263E26B002A33D064
:10117000800604D5880602D5204600F072FA206861
:101180004069E16BC0F38010090700D428B3204602
:1011900000F050FA2068416949061AD5416921F0EA
:1011A00040014161606BA0B11B494163606BFFF777
:1011B00043F9002810D0606B416BBDE870400847D0
:1011C000830610D58B060ED52046BDE8704000F092
:1011D00048BA2046FFF798FF70BD2046FFF794FFFE
:1011E0000020E06370BD030606D50B0604D520463B
:1011F000BDE8704000F0DCBA4006F3D54806F1D5F2
:10120000D168204621F04001D160202184F83910B6
:1012100000F0F2F870BD00009515000870B50400EC
:1012200004D094F83900002510B106E0012070BD0B
:1012300084F83850204600F023F8242084F8390040
:101240002068C16821F40051C160204600F054FAC2
:101250002068016921F4904101612068416921F011
:101260002A0141612068C16841F40051C160E56311
:10127000202084F8390084F83A00002070BD000076
:10128000F0B585B0002406460094019402940394BE
:1012900000682D49884255D12C48816941F480412C
:1012A0008161816901F480410491816941F0040107
:1012B00081618069264D00F0040004904FF40070B5
:1012C0000090022001900320039069462846FFF712
:1012D000E5FA2815CDE90004694628460294FFF78F
:1012E000DDFA1D4D1B488027C5E90004C5E902470A
:1012F00020202C61C5E905402846EC61FFF758FA2B
:1013000008B1FFF797F875636E62134D11484435C5
:10131000143801C5102091C50F4845F810494430D4
:101320006C61AC61EC61FFF743FA08B1FFF782F83A
:1013300035630022012125206E62FFF723FC252062
:10134000FFF712FC05B0F0BD00380140001002406C
:10135000000801405800024054010020F8B504463E
:1013600090F83A0020283CD1C1B3BAB394F83800C1
:10137000012836D0012084F83800A162A28500251A
:10138000E563222084F83A00636B17489862636B28
:101390001648D862636B16481863606B1346456342
:1013A0000846666B216802463046091DFFF73EFA83
:1013B000206801684168009184F83850C16841F4A0
:1013C0008071C1602068416941F00101416120687C
:1013D000416941F0400141610020F8BDFFE7012073
:1013E000FBE70220F9E70000EF1500082B160008C4
:1013F000A5150008704770477047FEE70D4808B50F
:10140000416941F0010141614069002200F00100A1
:10141000009001210E20FFF7B5FB0E20FFF7A4FB83
:10142000002201210F20FFF7ADFBBDE808400F208F
:10143000FFF79ABB0010024030B585B00020009045
:101440000190029003901648816941F0100181617A
:10145000816901F010010491816941F020018161ED
:10146000816901F020010491816941F004018161E9
:1014700080690C4D00F004004FF4015404900022E8
:1014800021462846FFF70DFB012002210094CDE9FB
:101490000101039169462846FFF700FA05B030BD07
:1014A00000100240001001400C4810B50A490160CC
:1014B0004FF4E1314160002181600C22C160C0E93C
:1014C00004128161C161FFF7A9FE002803D0BDE8C5
:1014D0001040FEF7AFBF10BD0038014014010020DE
:1014E000FEE7FEE770477047FFF7E6BA30B58FB00A
:1014F00028216846FEF7A3FE14210AA8FEF79FFEE6
:1015000001210804CDE90010002402940225049171
:10151000CDE907504FF4E01009906846FFF750FC02
:1015200008B172B6FEE70F20CDE90A054FF48060DE
:10153000CDE90C4002210AA80E94FFF755FB0028C4
:1015400001D072B6FEE70FB030BD00000D48016853
:1015500041F00101016041680B4A1140416001689E
:101560000A4A11400160016821F48021016041684C
:1015700021F4FE0141604FF41F0181600449C00362
:1015800008607047001002400000FFF8FFFFF6FE01
:1015900008ED00E010B5406A0021C185C184FFF765
:1015A000B3FD10BD70B5446A2068406994F83910E5
:1015B000C0F3C0100025212904D118B1E5842046CC
:1015C00000F046F82068406994F83A10C0F38010A3
:1015D000222904D118B1E585204600F02BF8E06BF4
:1015E00040F01000E0632046FFF78EFD70BD10B59F
:1015F0000146406A09680968890613D40021C1853B
:101600000168CA6822F48072CA6001684A6922F0DF
:1016100001024A6101684A6922F040024A612021C0
:1016200080F83A10FFF7E6FE10BD10B5406AFFF7EC
:10163000E2FE10BD0168CA6822F49072CA600168B7
:101640004A6922F001024A61202180F83A1070476D
:101650000168CA6822F0C002CA60202180F83910EF
:10166000704710B590F83A10222901D0022010BD21
:101670008168B1F5805F11D00169002901681FD030
:10168000496801F07F03816A4A1C82620B70C18D38
:10169000491E0904090CC18518D02BE00269816A32
:1016A000002A0268526805D0D2B20A80816A491CB9
:1016B0008162ECE7C2F308020A80816A891CF7E7BD
:1016C0004A68816A4B1C83620A70E0E70168CA6855
:1016D00022F02002CA600168CA6822F48072CA60DF
:1016E00001684A6922F001024A61202180F83A101B
:1016F000FFF780FE002010BD2DE9F0410446006890
:101700000169E26821F44051114301612169A06837
:101710000843616908432168CA6841F20C639A432F
:101720000243CA6020684169A26921F440711143F3
:1017300041611E49206864253226884202D1FFF7A4
:10174000F9FA01E0FFF7E6FA00EBC00101EB001146
:1017500060686FF018078000B1FBF0F2B2FBF5F2A1
:10176000B1FBF0F37A4303EB8202B1FBF0F306EB3B
:101770000212B2FBF5F2B3FBF5F302F0F00202EB5A
:101780000312B1FBF0F3B1FBF0F0B0FBF5F07843DE
:1017900003EB800006EB0010B0FBF5F0216800F0D1
:1017A0000F0010448860BDE8F0810000003801405F
:1017B00090F83910212901D0022070478168B1F5D5
:1017C000805F016A0BD04A1C02620268097851608E
:1017D000C18C491E0904090CC1840ED017E0098888
:1017E0000268C1F30801516001690029016A02D051
:1017F000491C0162ECE7891CFBE70168CA6822F01A
:101800008002CA600068C16841F04001C1600020E8
:101810007047000008B50E48FFF778FC0C480D49EA
:101820000068884213D10168C943C9060FD4016812
:1018300040680090FEF7C6FDFF210748FEF7F4FC64
:10184000BDE80840FF2204490148FFF787BD08BDF5
:10185000140100200038014014000020FEE70907B1
:10186000090E002804DB00F1E02080F80014704726
:1018700000F00F0000F1E02080F8141D7047704761
:1018800004490A685206FCD5024AC1B2121D116011
:101890007047000000380140FFF716F9FFF726FEF9
:1018A000FFF7CAFDFFF7AAFDFFF7FEFD0548006838
:1018B000C16841F01001C160FF2203490148FFF7F0
:1018C0004DFDFEE714010020140000200000000080
:1018D00000000000010203040607080900000000E0
:1018E0000102030404190008000000201400000095
:1018F0006C01000818190008140000202C080000D2
:101900008801000800000000010000001000000035
:08191000000000000024F400B7
:0400000508000131BD
:00000001FF
