:020000040800F2
:10000000B00B00206902000875250008FD230008D8
:1000100071250008550400085D2900080000000053
:100020000000000000000000000000007B25000828
:100030007B05000800000000792500087D250008E8
:10004000830200088302000883020008830200087C
:10005000830200088302000883020008830200086C
:10006000830200088302000883020008830200085C
:10007000830200088302000883020008830200084C
:10008000830200088302000883020008830200083C
:100090005904000883020008830200088302000854
:1000A0008302000849260008830200088302000832
:1000B000830200088302000883020008830200080C
:1000C00083020008830200088302000883020008FC
:1000D00083020008830200088302000883020008EC
:1000E00083020008830200088302000883020008DC
:1000F00083020008830200088302000883020008CC
:1001000083020008830200088302000883020008BB
:1001100083020008830200088302000883020008AB
:10012000830200088302000883020008830200089B
:10013000830200088302000883020008830200088B
:10014000830200086904000879040008830200089B
:10015000830200088302000883020008830200086B
:10016000830200088302000883020008830200085B
:1001700083020008830200088302000800000000D8
:10018000830200088302000800F002F800F05CF827
:100190000AA090E8000C82448344AAF10107DA45E2
:1001A00001D100F051F8AFF2090EBAE80F0013F0D8
:1001B000010F18BFFB1A43F0010318474428000041
:1001C000642800000A444FF0000C10F8013B13F0C3
:1001D000070408BF10F8014B1D1108BF10F8015BA0
:1001E000641E05D010F8016B641E01F8016BF9D193
:1001F00013F0080F1EBF10F8014BAD1C0C1B09D1EA
:100200006D1E58BF01F801CBFAD505E014F8016B5B
:1002100001F8016B6D1EF9D59142D6D370470000ED
:100220000023002400250026103A28BF78C1FBD8FF
:10023000520728BF30C148BF0B6070471FB502F09E
:10024000CDFB1FBD10B510BD00F0D1F81146FFF772
:10025000F5FF02F0A3FB00F0EFF803B4FFF7F2FFA5
:1002600003BC02F099FB0000094880470948004799
:10027000FEE7FEE7FEE7FEE7FEE7FEE7FEE7FEE756
:10028000FEE7FEE704480549054A064B70470000B3
:100290003526000889010008B0050020B00B0020B9
:1002A000B0070020B0070020704753EA020C00F0AE
:1002B00069802DE9F04B4FF00006002B1FBFB3FA09
:1002C00083F503FA05F424FA05F65E4012BF1643DF
:1002D000B2FA82F502FA05F4C5F120051EBF22FA32
:1002E00005FC44EA0C04203556EA044C4FEA144459
:1002F00018BF641C4FF000084FF00009904271EBEA
:10030000030C39D3002919BFB1FA81F701FA07F6B6
:10031000B0FA80F700FA07F6C7F120071EBF20FAEF
:1003200007FC46EA0C062037B6FBF4FCA7EB0507F2
:10033000103F07F01F0BCBF120060CFA0BFB2CFA39
:1003400006F644BFB3460026202FA4BF5E464FF0FA
:10035000000B5BEA060C08BF4FF0010B19EB0B0911
:10036000ABFB027C48EB0608C01B06FB02CC0BFB78
:1003700003CC71EB0C01C1E70B46024641464846EF
:10038000BDE8F08B13B54FF000004FF00001AFF364
:100390000080BDE81C4070474FF0000200B51346D6
:1003A00094469646203922BFA0E80C50A0E80C5095
:1003B000B1F12001BFF4F7AF090728BFA0E80C5046
:1003C00048BF0CC05DF804EB890028BF40F8042B3F
:1003D00008BF704748BF20F8022B11F0804F18BFAC
:1003E00000F8012B7047704770477047704775469B
:1003F00000F02CF8AE4605006946534620F0070091
:10040000854618B020B5FFF73DFFBDE820404FF00E
:1004100000064FF000074FF000084FF0000B21F0EE
:100420000701AC46ACE8C009ACE8C009ACE8C009BB
:10043000ACE8C0098D46704710B50446AFF30080A4
:100440002046BDE81040FFF708BF00000048704795
:100450005005002000BFFEE710B5024800F0B9FCCF
:1004600010BD00002C04002010B5024800F0B1FCC3
:1004700010BD00005404002010B5024800F0A9FC93
:1004800010BD00005404002030B58BB00546234950
:100490002868096888421AD1002006900790012038
:1004A0000890002001900290039004900590012094
:1004B00009900A9001A9284600F020FB284600F088
:1004C0004CFF0221284600F059FA044620E0144966
:1004D0002868096888421BD10F20069000200790E9
:1004E00001200890002001900290039004900120C8
:1004F000059009900F200A9001A9284600F0FEFA05
:10050000284600F02AFF1021284600F037FA04465A
:100510000CB100F033F80BB030BD00002C0400200B
:10052000540400202DE9F04186B006460C461546DD
:1005300001274FF000080095082004900020029049
:100540000390304600F02AFC00F0FF0804E030463B
:1005500000F024FC00F0FF08B8F1000FF7D00223F0
:1005600022466946304600F01EFA07461FB10220B7
:1005700006B0BDE8F0810020FAE7704772B600BF10
:10058000FEE770B504460D4616463246294620461B
:10059000FFF7C8FF002070BD70B505460E46012468
:1005A00012E004F50170A8420DD1601E00EB40007E
:1005B000074901EB400031680160B1888180E0B2F9
:1005C00000F03EF870BD641C092CEADB00BFF9E7BF
:1005D0009C03002010B5014600204A1E02EB420297
:1005E000164B03EB420292780123B3EBE21F13D1C7
:1005F0004A1E02EB4202114B03EB4202D3784A1E21
:1006000002EB42020D4C04EB4202927803EB022211
:10061000A2F57F40FF380FE04A1E02EB4202074B73
:1006200003EB4202D3784A1E02EB4202034C04EB76
:100630004202927803EB022010BD00009C030020D0
:1006400010B588B00146481E00EB4002204B03EB7A
:100650004202527800EB40031D4C14F8133002EBB9
:1006600003224DF820205DF820201A4B53F820304B
:10067000D21AB2F5805F09DB174A52F82020A2F5A2
:10068000F852FF3A144B43F8202011E05DF8202087
:10069000104B53F82030D21A12F5805F08DC0E4A56
:1006A00052F8202041F6FF731A440B4B43F82020E8
:1006B0005DF82020074B43F82020074A52F82020FD
:1006C0005DF820301A44054B43F8202008B010BDD7
:1006D0009C0300200C040020EC030020CC0300202D
:1006E00070B506460D46681EC4B2C4EBC400874907
:1006F00051F83000C4EBC401844A02EBC1014860E8
:10070000E8B2FFF767FF301AC4EBC4017F4A42F832
:100710003100C4EBC400114601EBC0008068C4EB9B
:10072000C40152F831100844C4EBC40102EBC1010A
:100730008860C4EBC400114601EBC000806842F23F
:100740001071884201DB084610E0C4EBC4006F4919
:1007500001EBC00080686E49884201DC084605E074
:10076000C4EBC400694901EBC0008068C4EBC4015C
:10077000664A02EBC1018860C4EBC400114601EB7C
:10078000C000D0ED040AC4EBC40051F8300000EE04
:10079000100AB8EEC00A20EE800AC4EBC40001EBD8
:1007A000C00080ED090AC4EBC40001EBC000D0ED2D
:1007B000050AC4EBC40001EBC00090ED020AB8EEDC
:1007C000C00A20EE800AC4EBC40001EBC00080ED3B
:1007D0000A0AC4EBC40051F83000C4EBC40102EBB8
:1007E000C1014968401A00EE100AB8EEC00AC4EB15
:1007F000C400114601EBC000D0ED060A20EE200A2D
:10080000C4EBC40001EBC00080ED0B0AC4EBC400D4
:1008100001EBC00090ED090AC4EBC40001EBC0007D
:10082000D0ED0A0A30EE200AC4EBC40001EBC00090
:10083000D0ED0B0A30EE200AC4EBC40001EBC0007F
:1008400080ED0C0AC4EBC40001EBC000D0ED0C0A33
:10085000C4EBC40001EBC00090ED070AB8EEC00A7B
:10086000F4EEC00AF1EE10FA08DBC4EBC40001EBB1
:10087000C00090ED070AB8EEC00A23E0C4EBC40044
:10088000224901EBC000D0ED0C0AC4EBC40001EB1F
:10089000C00090ED080AB8EEC00AF4EEC00AF1EE0E
:1008A00010FA08D8C4EBC40001EBC00090ED080AB0
:1008B000B8EEC00A06E0C4EBC400144901EBC00066
:1008C00090ED0C0AC4EBC400104901EBC00080EDB0
:1008D0000C0AC4EBC40001EBC00090ED0C0AB5EEAD
:1008E000C00AF1EE10FA00DB00E000BFE9B2C4EB91
:1008F000C402064B03EBC20292ED0C0ABDEEC00A25
:1009000010EE100A00F006F870BD00000000002094
:10091000F0D8FFFF70B505460C46012C26DB082CED
:1009200024DC002600BF1248854201DC054604E0B5
:1009300047F23050854200DB0546042C02DC40F2D1
:10094000FF1603E040F2FF26201FC4B2C5F30721C3
:100950006000801E074A11546000401E1554B2B258
:1009600004490548FFF70DFE002070BD0120FCE79B
:10097000D08AFFFF800300205404002010B50246F7
:1009800092F82030012B01D0022B06D1106840696B
:10099000084314686061002010BD506A40F4802054
:1009A00050620120F8E7F0B504460D461E4694F863
:1009B000207020688368A86800B900E000BF012F9C
:1009C00001D0022F7CD103F0806030B903F00060C9
:1009D00018B903F08050002873D0C3F301610229D5
:1009E00005D9606A40F4000060620120F0BD01207A
:1009F00088403060A86860B9B5F800C0E86840EA8F
:100A00004C5C206800F5C07000EB0110C0F800C01D
:100A10000FE0D5E901C040EACC00D5F80CC040EAAF
:100A20000C00D4F800C00CF5C07C0CEB011CCCF819
:100A30000000D5F810C0206800F5C07000EB011070
:100A4000C0F804C0287D01280ED1206800F5C070D0
:100A500000EB0110406840F4807C206800F5C07015
:100A600000EB0110C0F804C0D079000692F806C06F
:100A700040EA0C4092F805C040EA0C2C10794CEA90
:100A8000000C206800F5C07000EB0110C0F80CC02D
:100A9000D078000692F802C040EA0C4092F801C0FB
:100AA00040EA0C2092F800C040EA0C00D4F800C0E4
:100AB0000CF5C07C0CEB011CCCF80800206801E0B0
:100AC00016E00FE000F5C07000EB0110006840F088
:100AD000010C206800F5C07000EB0110C0F800C0E8
:100AE000002083E7606A40F40010606201207DE727
:100AF000606A40F480206062012077E7F0B5044628
:100B00000A46216894F82050012D01D0022D7ED193
:100B1000424901F50071086840F00100086008686A
:100B200020F47C5008600868566A40EA0620086095
:100B3000107D00F01F06012000FA06F3C8699843F3
:100B4000C861A1F50071D069C8B9D1F80C02984309
:100B5000C1F80C02908880B2968940EA064601F5F9
:100B60001070576940F83760108880B2168940EAE3
:100B7000064601F51070576900EBC7004660D06962
:100B8000012819D1D1F80C021843C1F80C02908841
:100B900080B2168840EA064601F51070576940F8A1
:100BA0003760908980B2168940EA064601F51070D8
:100BB000576900EBC7004660906928B9D1F8040274
:100BC0009843C1F8040204E0D1F804021843C1F8C4
:100BD0000402106928B9D1F814029843C1F814022C
:100BE00004E0D1F814021843C1F81402106A012875
:100BF00004D1D1F81C021843C1F81C02D1F800023C
:100C000020F00100C1F800020020F0BDFFE7606A9B
:100C100040F4802060620120F7E70000006400409B
:100C2000704770B5044694F82050012D01D0022D74
:100C30007DD151B92068C06800F0030080B9606AB6
:100C400040F400106062012070BD2068006900F06F
:100C5000030028B9606A40F4001060620120F3E7E5
:100C6000206800F5D87000EB0110006800F0040067
:100C70009060906840B9206800F5D87000EB0110D2
:100C80000068400D106007E0206800F5D87000EBA8
:100C900001100068C0085060206800F5D87000EBB3
:100CA0000110006800F00200D060206800F5D870E4
:100CB00000EB0110406800F00F001061206800F5A3
:100CC000D87000EB0110406800F47F40000A90618A
:100CD000206800F5D87000EB01104068000C5061EE
:100CE000206800F5D87000EB01108068187020684B
:100CF00000F5D87000EB0110806800F47F40000A16
:100D00005870206800F5D87000EB0110806800F47E
:100D10007F00000C9870206800F5D87000EB01107F
:100D20008068000ED870206800F5D87000E02FE0D1
:100D300000EB0110C0681871206800F5D87000EB56
:100D40000110C06800F47F40000A5871206800F567
:100D5000D87000EB0110C06800F47F00000C98719F
:100D6000206800F5D87000EB0110C068000ED87143
:100D700031B92068C06840F020002668F06005E0C6
:100D80002068006940F020002668306100205BE7A1
:100D9000606A40F480206062012055E7014600202F
:100DA00091F82020012A01D0022A11D10B689B68FA
:100DB00003F0806303B1401C0B689B6803F0006381
:100DC00003B1401C0B689B6803F0805303B1401CC7
:100DD00070472DE9F05F04460025206846692068C9
:100DE000D0F80490206887682068D0F80CA02068AC
:100DF000D0F810B02068D0F8188006F00100002864
:100E000055D007F00100C0B101202168886007F0CB
:100E1000020018B1204600F0D0FA0EE007F00400FE
:100E200010B145F4006508E007F0080010B145F482
:100E3000805502E0204600F0BFFA07F48070C8B188
:100E40004FF480702168886007F4007018B1204664
:100E500000F0B5FA0EE007F4806010B145F40055DB
:100E600008E007F4006010B145F4804502E0204638
:100E700000F0A4FA07F48030C8B14FF48030216844
:100E8000886007F4003018B1204600F09AFA0EE0AE
:100E900007F4802010B145F4004508E007F4002075
:100EA00010B145F4803502E0204600F089FA06F0E2
:100EB000080038B10AF0100020B145F40075102088
:100EC0002168C86006F0040040B10AF0080028B1AB
:100ED00008202168C860204600F016FA06F00200DB
:100EE00038B12068C06800F0030010B1204600F05F
:100EF0000CFA06F0400038B10BF0100020B145F4B8
:100F0000806510202168086106F0200040B10BF0D8
:100F1000080028B1082021680861204600F0F6F991
:100F200006F0100038B12068006900F0030010B12D
:100F3000204600F0EDF906F4003040B109F0100051
:100F400028B1102021684860204600F005FA06F418
:100F5000803040B109F0080028B1082021684860BD
:100F6000204600F02FFA06F4004088B309F0040090
:100F700078B306F4807020B108F0010008B145F0A4
:100F8000010506F4007020B108F0020008B145F038
:100F9000020506F4806020B108F0040008B145F0B5
:100FA000040506F40060A0B108F0700088B108F0F4
:100FB0007000402817D006DC10280BD020280CD059
:100FC000302819D10CE0502810D0602814D110E03E
:100FD0001DE019E045F008050FE045F010050CE0B4
:100FE00045F0200509E045F0400506E045F08005A4
:100FF00003E045F4807500E000BF00BF2068806911
:1010000020F07000216888610420216848602DB1BB
:10101000606A284360622046FFF702FEBDE8F09F49
:1010200070B504460CB9012070BD94F8200010B9C9
:10103000204600F0AFF82068006840F00100216809
:10104000086000F0CFFA05460DE000F0CBFA401B37
:101050000A2808D9606A40F400306062052084F8EC
:1010600020000120E0E72068406800F0010000282F
:10107000EBD02068006820F002002168086000F0D2
:10108000B1FA05460DE000F0ADFA401B0A2808D978
:10109000606A40F400306062052084F8200001207E
:1010A000C2E72068406800F002000028EBD1207EF3
:1010B000012806D12068006840F08000216808609F
:1010C00005E02068006820F0800021680860607EEC
:1010D000012806D12068006840F0400021680860BF
:1010E00005E02068006820F0400021680860A07ECC
:1010F000012806D12068006840F0200021680860BF
:1011000005E02068006820F0200021680860E07E8B
:10111000012806D12068006820F0100021680860CE
:1011200005E02068006840F0100021680860207F1A
:10113000012806D12068006840F008002168086096
:1011400005E02068006820F0080021680860607FE2
:10115000012806D12068006840F00400216808607A
:1011600005E02068006820F0040021680860D4E9E8
:101170000201084321690843616908436168491E07
:1011800008432168C86100206062012084F82000C3
:10119000002049E710B586B00446142101A8FFF7E6
:1011A000FBF853492068884242D152480068401CED
:1011B000504908600846006801280FD100BF002090
:1011C00000904D48006840F000704B4908600846A8
:1011D000006800F00070009000BF00BF00BF00205A
:1011E000009045481038006840F00100424910392D
:1011F00008600846006800F00100009000BF00BFD2
:101200004FF4C05001900220029000200390032070
:1012100004900920059001A9384800F0E9F800225F
:101220001146142000F092FA142000F07FFA5DE0DD
:1012300033492068884259D100BF002000902E48D1
:10124000006840F080602C4908600846006800F0A3
:101250008060009000BF00BF26480068401C254900
:1012600008600846006801280FD100BF00200090E8
:101270002148006840F000701F4908600846006877
:1012800000F00070009000BF00BF00BF0020009081
:1012900019481038006840F00200174910390860FA
:1012A0000846006800F00200009000BF00BF4FF445
:1012B00040500190022002900020039003200490EF
:1012C0000920059001A90F4800F092F8002211466C
:1012D000412000F03BFA412000F028FA002211469C
:1012E000422000F033FA422000F020FA06B010BD90
:1012F00000640040880300204038024000000240A3
:1013000000680040000402407047704770470000CA
:1013100010B58AB004460F4920680968884217D181
:1013200000200190029001AB03AA01212046FFF7A3
:1013300078FC059858B90398B0F5027F07D903984F
:10134000B0F5037F03D201A90398FFF725F900BF89
:101350000AB010BD54040020704770B5044694F8DC
:101360002000012822D1022084F820002068006893
:1013700020F001002168086000F034F905460DE016
:1013800000F030F9401B0A2808D9606A40F40030A8
:101390006062052084F82000012070BD206840684C
:1013A00000F001000028EBD16062F6E7606A40F4CB
:1013B000002060620120F0E7704770477047704777
:1013C000704770477047000070B5044600F00AF996
:1013D00006462546681C10B104480078054400BF45
:1013E00000F000F9801BA842FAD370BD94030020DE
:1013F000F8B502460B460025002400200021D6E067
:10140000012606FA01F51E6806EA0504AC4274D10D
:101410001E7906F00306012E04D01E7906F003069D
:10142000022E13D190684F000326BE40B0434F00F8
:10143000DE68BE4030439060506801268E40B04365
:101440001E79C6F300168E40304350601E7906F0B8
:101450000306032E09D0D0684F000326BE40B043D8
:101460004F009E68BE403043D0601E7906F00306F0
:10147000022E13D1CF0802F1200656F827004E079E
:10148000F70E0F26BE40B0434F07FF0E1E69BE4049
:101490003043CF0802F1200646F8270010684F00BD
:1014A0000326BE40B0431E7906F003064F00BE403F
:1014B000304310605E6806F44036002E76D000BFE0
:1014C000002600963C4E366846F480463A4F3E6011
:1014D0003E46366806F48046009600BF00BF374E91
:1014E0008F0856F827008E07370F0F26BE40B043EF
:1014F000334EB24202D1002624E057E0314EB242D0
:1015000001D101261EE0304EB24201D1022619E07F
:101510002E4EB24201D1032614E02D4EB24201D12B
:1015200004260FE02B4EB24201D105260AE02A4ED6
:10153000B24201D1062605E0284EB24201D107266B
:1015400000E008268F073F0FBE4030431B4E8F0838
:1015500046F82700224E3068A0435E6806F48016E5
:1015600006B120431E4E3060361D3068A0435E68D1
:1015700006F4001606B12043194E361D3060184E91
:10158000361F3068A0435E6806F4003606B120437B
:10159000134E361F3060361F3068A0435E6806F475
:1015A000803606B120430E4E083E3060491C10299B
:1015B000FFF426AFF8BD000044380240083801406F
:1015C000000002400004024000080240000C0240FB
:1015D000001002400014024000180240001C0240AB
:1015E000083C014001480068704700008C0300205F
:1015F00003480068034909780844014908607047B6
:101600008C0300209403002010B50D48006840F4BE
:1016100000700B4908600846006840F4806008606C
:101620000846006840F480700860032000F0CCF8A1
:10163000002000F007F800F055F8002010BD000071
:10164000003C0240F0B587B004460026002700BFEA
:10165000002000901E48006840F001001C4908600E
:101660000846006800F00100009000BF00BF01A91B
:1016700002A800F07FF900F0B5F946001548B6FB66
:10168000F0F0471E14481549086040F2E73113484E
:10169000C1604760002101618160816100F0B4FC9C
:1016A000054695B90D4800F0FDFC05466DB91920B9
:1016B00000F03CF8102C07D200222146192000F03F
:1016C00045F80748046000E00125284607B0F0BD52
:1016D0004438024040420F0000000140080500204D
:1016E0009003002008B500BF002000900E4800685D
:1016F00040F480400C4908600846006800F48040CF
:10170000009000BF00BF00BF00200090081F0068CD
:1017100040F08050091F08600846006800F08050C3
:10172000009000BF00BF08BD443802400146084693
:10173000002809DB00F01F0301229A4043099B00A7
:1017400003F1E023C3F8002100BF70472DE9F05FEB
:1017500080460D461646002701F002F90746394635
:101760002A46334601F00700C0F1070ABAF1040F18
:1017700002D94FF0040A01E0C0F1070AD14600F196
:10178000040ABAF1070F02D24FF0000A01E0A0F1FB
:10179000030AD4464FF0010A0AFA09FAAAF1010A2B
:1017A0000AEA020A0AFA0CFA4FF0010B0BFA0CFBD8
:1017B000ABF1010B0BEA030B4AEA0B04214640464E
:1017C00001F0D6F8BDE8F09F00BF00F00702064B1D
:1017D00019684FF6FF031940044B0B4343EA0221FB
:1017E000014B196000BF70470CED00E00000FA05E6
:1017F00070B504460D460CB9012070BD584800680C
:1018000000F00700A84209D255490D70084600684B
:1018100000F00700A84201D00120EEE7207800F098
:10182000020002281DD1207800F00400042805D110
:101830004C48006840F4E0504A490860207800F0C5
:101840000800082805D14748006840F46040454931
:1018500008604448006820F0F000A168084341494E
:101860000860207800F00100A8B36068012807D163
:101870003C4808380068C0F34040B8B90120BCE7D4
:101880006068022802D06068032807D1354808380C
:101890000068C0F3406048B90120AEE7314808381D
:1018A0000068C0F3400008B90120A6E72D48006891
:1018B00020F00300616808432A490860FFF792FEA0
:1018C000064609E0FFF78EFE801B41F28831884210
:1018D00002D9032091E707E02248006800F00C00DD
:1018E0006168B0EB810FEDD11D48006800F0070082
:1018F000A84209D91A490D700846006800F007008F
:10190000A84201D0012078E7207800F004000428E4
:1019100007D11448006820F4E050E16808431149F9
:101920000860207800F00800082808D10D480068F9
:1019300020F46040216940EAC1000A49086000F0D3
:1019400061F808490968C1F30311074A515CC840AE
:101950000649086006480068FFF774FE00204CE75F
:10196000003C024008380240E629000898030020A5
:10197000900300200F2202600D4A126802F0030259
:1019800042600B4A126802F0F0028260084A126854
:1019900002F4E052C260064A126802F46042D208C1
:1019A0000261044A126802F007020A6070470000F0
:1019B00008380240003C02400148006870470000BF
:1019C0009803002000B5FFF7F7FF04490968C1F349
:1019D0008221034A515CC84000BD00000838024023
:1019E000F629000800B5FFF7E7FF04490968C1F3CD
:1019F0004231034A515CC84000BD00000838024033
:101A0000F62900082DE9F047002400250026A1460C
:101A10002548006800F00C0020B1042805D00828F3
:101A20003AD105E0DFF8849039E0DFF8849036E0C1
:101A30001D48001F006800F03F041B48001F00689D
:101A400000F4800078B11A481749091F0968C1F3EA
:101A50008811A0FB01700146224600233846FEF79C
:101A600024FC05460EE011480F49091F0968C1F31F
:101A70008811A0FB01700146224600233846FEF77C
:101A800014FC05460848001F0068C0F30140401CD4
:101A90004600B5FBF6F902E0DFF8109000BF00BF8A
:101AA0004846BDE8F0870000083802400024F400F2
:101AB00040787D01F8B504460CB90120F8BD2078C6
:101AC00000F00100002874D0F948006800F00C0014
:101AD00004280DD0F648006800F00C00082813D147
:101AE000F348001F006800F48000B0F5800F0BD1B0
:101AF000EF4808380068C0F34040002859D06068BB
:101B0000002856D10120D9E700BF6068B0F5803FBA
:101B100008D1E7480838006840F48030E4490839C3
:101B200008601EE06068B0F5A02F0DD1E0480838CD
:101B3000006840F48020DE490839086008460068E3
:101B400040F4803008600CE0D9480838006820F480
:101B50008030D749083908600846006820F48020A2
:101B6000086000BF606890B1FFF73CFD054606E0E5
:101B7000FFF738FD401B642801D903209EE7CC48BD
:101B800008380068C0F340400028F1D011E0FFF7AA
:101B900029FD054606E0FFF725FD401B642801D915
:101BA00003208BE7C24808380068C0F34040002893
:101BB000F1D1207800F0020002285FD1BC48006813
:101BC00000F00C0058B1BA48006800F00C0008287A
:101BD0001CD1B748001F006800F48000B0B9B448B9
:101BE00008380068C0F3400020B1E068012801D047
:101BF000012063E7AE480838006820F0F80021694A
:101C000040EAC100AA490839086037E0E06800B33B
:101C10000120A8490860FFF7E5FC054606E0FFF74C
:101C2000E1FC401B022801D9032047E7A0480838FF
:101C30000068C0F340000028F1D09D4808380068D3
:101C400020F0F800216940EAC1009949083908608C
:101C500014E0002097490860FFF7C4FC054606E041
:101C6000FFF7C0FC401B022801D9032026E790485B
:101C700008380068C0F340000028F1D1207800F057
:101C8000080008282CD16069A8B101208A490860A1
:101C9000FFF7A8FC054606E0FFF7A4FC401B02285E
:101CA00001D903200AE782486C300068C0F3400085
:101CB0000028F1D014E000207F490860FFF792FC73
:101CC000054606E0FFF78EFC401B022801D90320E1
:101CD000F4E677486C300068C0F340000028F1D18A
:101CE000207800F00400042870D1002770483830B4
:101CF000006800F0805090B900BF002000906C4850
:101D00003830006840F08050694938310860084632
:101D1000006800F08050009000BF00BF01276748B6
:101D2000006800F48070B0B96448006840F48070C6
:101D300062490860FFF756FC054606E0FFF752FCD3
:101D4000401B022801D90320B8E65C48006800F473
:101D500080700028F2D000BFA068012808D1544844
:101D60006830006840F001005149683108601DE0AA
:101D7000A06805280DD14E486830006840F0040086
:101D80004B49683108600846006840F0010008606F
:101D90000CE047486830006820F001004449683191
:101DA00008600846006820F00400086000BFA068D2
:101DB000A8B1FFF717FC054609E0FFF713FC401B2D
:101DC00041F28831884202D9032077E626E038487C
:101DD00068300068C0F340000028EED013E0FFF741
:101DE00001FC054608E0FFF7FDFB401B41F288318E
:101DF000884201D9032061E62D4868300068C0F3AD
:101E000040000028EFD1012F07D129483830006861
:101E100020F0805026493831086000BFA0690028B2
:101E200045D02348006800F00C0008285DD0A06968
:101E3000022845D100201F490866FFF7D3FB05465D
:101E400006E0FFF7CFFB401B022801D9032035E64F
:101E5000174808380068C0F340600028F1D1D4E981
:101E600007010843616A40EA81110122A06AC2EBBE
:101E7000500041EA00412C20005D41EA00600C491D
:101E8000091F086001200B490866FFF7ABFB0546F8
:101E900006E0FFF7A7FB401B022801D903200DE64F
:101EA000034808380068C0F340600028F1D049E0DA
:101EB0000838024000004742800E47420070004050
:101EC000002021490866FFF78DFB054606E0FFF775
:101ED00089FB401B022801D90320EFE51B4800685D
:101EE000C0F340600028F2D12CE0A069012800D1A5
:101EF000E4E51648001D0668A069012820D006F414
:101F00008001E06981421BD106F03F01206A8142D5
:101F100016D147F6C0703040616AB0EB811F0FD117
:101F200006F440310122A06AC2EB5000B1EB004F31
:101F300006D106F070612C20005DB1EB006F01D07E
:101F40000120BBE50020B9E500004742003802400F
:101F50007047704730B502460B4600BF92F83C0010
:101F6000012801D1022030BD012082F83C0000BFD1
:101F7000022082F83D00106844681068816824F0EF
:101F800070041868044310684460184D1068A84233
:101F90001BD01068B0F1804F17D0154D1068A842C3
:101FA00013D0144D1068A8420FD0134D1068A842EA
:101FB0000BD0124D1068A84207D0114D1068A842EE
:101FC00003D0104D1068A84205D121F08001586857
:101FD000014310688160012082F83D0000BF0020AD
:101FE00082F83C0000BF00BFBDE7000000000140D8
:101FF0000004004000080040000C004000040140C4
:10200000004001400018004010B504460CB9012002
:1020100010BD94F83D0028B9002084F83C0020460B
:1020200000F026F8022084F83D00211D206800F011
:1020300013FB012084F8460000BF84F83E00012114
:102040003F200155402001554120015500BF00BFF0
:10205000012084F8420043200155442001554520C9
:10206000015500BF012084F83D000020D0E70000AA
:1020700008B50A4A016891420FD100BF00210091C2
:102080000749096841F01001054A116011460968C5
:1020900001F01001009100BF00BF08BD001000401A
:1020A00040380240014691F83D00012801D001204E
:1020B0007047022081F83D000868C06840F00100C8
:1020C0000B68D8601A4B086898421BD00868B0F1BA
:1020D000804F17D0174B0868984213D0164B0868EA
:1020E00098420FD0154B086898420BD0144B0868E3
:1020F000984207D0134B0868984203D0124B0868E7
:1021000098420CD10868806800F00702062A0CD0BB
:102110000868006840F001000B68186005E0086876
:10212000006840F001000B6818600020C0E7000064
:10213000000001400004004000080040000C004086
:10214000000401400040014000180040704710B5F5
:10215000044620680069C0F34000D8B12068C06818
:10216000C0F34000B0B16FF00200216808610120A7
:1021700020772068806900F0030018B12046FFF73F
:10218000E5FF05E0204600F0ADF8204600F0ABF892
:102190000020207720680069C0F38000D8B1206853
:1021A000C068C0F38000B0B16FF00400216808611E
:1021B000022020772068806900F4407018B1204622
:1021C000FFF7C4FF05E0204600F08CF8204600F041
:1021D0008AF80020207720680069C0F3C000D8B1D9
:1021E0002068C068C0F3C000B0B16FF0080021687B
:1021F0000861042020772068C06900F0030018B14E
:102200002046FFF7A3FF05E0204600F06BF82046CC
:1022100000F069F80020207720680069C0F3001002
:10222000D8B12068C068C0F30010B0B16FF01000E2
:1022300021680861082020772068C06900F4407098
:1022400018B12046FFF782FF05E0204600F04AF86B
:10225000204600F048F8002020772068006900F050
:10226000010058B12068C06800F0010030B16FF083
:10227000010021680861204600F036F820680069F6
:10228000C0F3C01058B12068C068C0F3C01030B1AE
:102290006FF08000216808612046FFF759FE206832
:1022A0000069C0F3801058B12068C068C0F3801086
:1022B00030B16FF0400021680861204600F020F83E
:1022C00020680069C0F3401058B12068C068C0F3AE
:1022D000401030B16FF02000216808612046FFF700
:1022E00038FE10BD7047704710B50446034920689A
:1022F000884201D1FFF77CF910BD000000000140C9
:10230000704710B504460CB9012010BDA06900B19A
:1023100000E000BF94F83D0028B9002084F83C009C
:10232000204600F027F8242084F83D002068C0688B
:1023300020F400502168C860204600F0F9F92068B8
:10234000006920F49040216808612068406920F00D
:102350002A00216848612068C06840F40050216864
:10236000C86000202064202084F83D0084F83E00EE
:102370000020CAE710B586B00446142101A8FEF774
:102380000BF81B492068884230D100BF0020009024
:102390001848006840F010001649086008460068B8
:1023A00000F01000009000BF00BF00BF00200090B0
:1023B00010481438006840F001000E4914390860D4
:1023C0000846006800F00100009000BF00BF4FF415
:1023D000C06001900220029000200390032004902E
:1023E0000720059001A90448FFF702F806B010BDC8
:1023F00000100140443802400000024000BFFEE7E8
:1024000010B50E480E4908600420486000210C48B1
:102410008160C1604FF4403101614FF4800141613E
:102420000021017641768176C17601774177FEF70A
:10243000F7FD08B1FEF7A2F810BD000000640040EF
:102440002C04002010B50E480E4908600420486096
:1024500000210C488160C1604FF4403101614FF4AC
:10246000800141610021017641768176C176017754
:102470004177FEF7D5FD08B1FEF780F810BD0000EA
:10248000006800405404002008B500BF0020009000
:102490001548006840F0800013490860084600684D
:1024A00000F08000009000BF00BF00BF002000903F
:1024B0000846006840F0020008600846006800F026
:1024C0000200009000BF00BF00BF0020009008463F
:1024D000006840F0010008600846006800F0010054
:1024E000009000BF00BF08BD303802401CB500207E
:1024F000009001900E480F4908604F20486000216D
:102500000C48816040F2E731C16000218161FFF732
:102510007BFD08B1FEF732F800200090019069467B
:102520000448FFF717FD08B1FEF728F81CBD0000AE
:10253000001000407C04002010B50B480B490860D7
:102540004FF4E1304860002108488160C1600161BA
:102550000C21416100218161C161FFF7D2FE08B108
:10256000FEF70CF810BD000000100140C40400206C
:1025700000BFFEE700BFFEE77047704770470000EE
:1025800000B593B0302107A8FDF706FF142102A87B
:10259000FDF702FF00BF002001902448006840F0D2
:1025A0008050224908600846006800F08050019081
:1025B00000BF00BF00BF002001901D48006840F42C
:1025C00080401B4908600846006800F48040019084
:1025D00000BF00BF012007900004089002200D906A
:1025E00041050E910F210F91C021109102211191EF
:1025F0000421129107A8FFF75DFA08B1FDF7BEFFAD
:102600000F20029002200390002004904FF4A0506D
:1026100005904FF480500690052102A8FFF7E8F8D6
:1026200008B1FDF7ABFF13B000BD00004038024019
:10263000007000400348006840F4700001490860E1
:102640007047000088ED00E010B50248FFF77FFDFD
:1026500010BD00000805002010B50268294B984203
:102660000ED0B0F1804F0BD0274B984208D0274BAB
:10267000984205D0264B984202D0264B984203D16F
:1026800022F070024B681A431E4B984220D0B0F1E2
:10269000804F1DD01C4B98421AD01C4B984217D02B
:1026A0001B4B984214D01B4B984211D01A4B9842A6
:1026B0000ED01A4B98420BD0194B984208D0194BA8
:1026C000984205D0184B984202D0184B984203D13B
:1026D00022F44072CB681A4322F080034C6943EA2B
:1026E000040202608B68C3620B688362054B9842E8
:1026F00002D0084B984201D10B6903630123436167
:1027000010BD00000000014000040040000800402F
:10271000000C004000040140004001400044014022
:102720000048014000180040001C0040002000400C
:102730002DE9F84F04462068006920F44050E16814
:102740000843216808612169A0680843616908435A
:10275000E169084300902068C06849F20C61884331
:10276000009908432168C8602068406920F44070DF
:10277000A16908432168486176492068884203D0EE
:1027800075492068884203D1FFF72CF9814602E0A1
:10279000FFF718F98146E069B0F5004F6CD10220CF
:1027A0006168A0FB015003461920A9FB0070014697
:1027B0002A463846FDF779FD6421B0FBF1F04FEA77
:1027C000001A02206168A0FB01510B461920A9FBE9
:1027D00000712A463846FDF768FD8346022061688D
:1027E000A0FB015003461920A9FB00712A46384678
:1027F000FDF75BFD6421B0FBF1F000EBC00101EBE4
:102800000010ABEB8000322101EBC0006421B0FB73
:10281000F1F000F0F8000AEB400A02206168A0FB2A
:10282000015003461920A9FB007001462A4638468C
:10283000FDF73BFD834602206168A0FB0150034683
:102840001920A9FB00712A463846FDF72EFD6421A8
:10285000B0FBF1F000EBC00101EB0010ABEB80002E
:10286000322101EBC0006421B0FBF1F000F0070061
:102870005044216888606AE004206168A0FB015030
:1028800003461920A9FB007001462A463846FDF789
:102890000CFD824604206168A0FB0150034619200C
:1028A000A9FB007001462A463846FDF7FEFC64216C
:1028B000B0FBF1F000EBC00101EB0010AAEB8000CF
:1028C000322101EB00106421B0FBF1F000F0F00ABE
:1028D00004206168A0FB017003461920A9FB005188
:1028E0003A462846FDF7E1FC6421B0FBF1F00AEB23
:1028F000001A04206168A0FB01510B461920A9FBB6
:1029000000712A463846FDF7D0FC834604206168F2
:10291000A0FB015003461920A9FB007001462A467E
:102920003846FDF7C2FC6421B0FBF1F000EBC001BA
:1029300001EB0010ABEB8000322101EB00106421B1
:10294000B0FBF1F000F00F00504421688860BDE852
:10295000F88F0000001001400014014000BFFEE7A6
:1029600002480068C0F30220704700000CED00E050
:1029700010B5002804DB0A07130E054A135406E0BD
:102980000A07140E034A00F00F031B1FD45410BD96
:1029900000E400E018ED00E000BF7047FEF734FEF1
:1029A000FFF7EEFDFFF770FDFFF74CFDFFF79EFD13
:1029B000FFF7C2FDFFF724FD0748FDF765FD09E0BD
:1029C00005213220FDF78CFE0220FEF7FDFC0020E1
:1029D000FEF7FAFCF4E70000540400204FF04070CA
:1029E000E1EE100A70470000000000000000010244
:1029F00003040607080900000000010203040000A8
:102A0000202A0008000000209C030000C4010008E8
:102A1000B02A00089C0300201408000020020008CF
:102A2000011263DC421680BFE093040526206CFB94
:102A3000FF5AB43821092C380A6DC8381F8C42332C
:102A4000338340360A2C40381A487023803F0A9757
:102A5000A03853F401463F0AD7A33C2308020C1FB9
:102A6000F8FDFF3832C808082B6666263F96438B70
:102A7000381A2C70080D2ACDCC0C3F8FC2753CCD76
:102A8000CC4C3D3808082B6666E63E0AD723384111
:102A9000453333333F29381A40480B24C0FE380CE5
:102AA000A36666A6383210192F211324F400000003
:040000050800018965
:00000001FF
